S018000042537A465F68617A695F66656C616461742E7333374C
S113000000100020090D0000E73C0000E73C000060
S1130010E73C0000E73C0000E73C0000E73C000050
S1130020E73C0000E73C0000E73C0000E73C000040
S1130030E73C0000E73C0000E73C0000F101000061
S1130040E73C00002D100000E73C0000E73C000006
S1130050E73C0000E73C0000E73C0000E73C000010
S1130060E73C0000E73C0000E73C000051100000C2
S1130070E73C0000E73C0000E73C0000E73C0000F0
S1130080E73C00009D040000E73C0000E73C000062
S1130090E73C0000E73C0000E73C0000E73C0000D0
S11300A0E73C0000E73C0000E73C0000E73C0000C0
S11300B0E73C0000E73C0000E73C0000E73C0000B0
S11300C0E73C0000E73C0000E73C0000E73C0000A0
S11300D0E73C0000E73C0000E73C000000000000B3
S11300E0013800D0FCE770470348044B834202D038
S11300F0034B03B118477047A8110020A811002032
S1130100000000000548064B1B1AD90F01EBA301A0
S1130110491002D0034B03B118477047A8110020BF
S1130120A81100200000000010B5064C237843B944
S1130130FFF7DAFF044B13B10448AFF30080012347
S1130140237010BD5815002000000000E05000008E
S113015008B5054B1BB105490548AFF30080BDE860
S11301600840FFF7CFBF00BF00000000A811002027
S1130170E0500000A3F5803A704700BF174B002BF6
S113018008BF134B9D46FFF7F5FF00218B460F4632
S11301901348144A121A03F0E5FE0E4B002B00D04C
S11301A098470D4B002B00D09847002000210400F5
S11301B00D000D48002802D00C48AFF3008003F076
S11301C0B1F82000290003F04CFD02F043FF00BF0A
S11301D000000800000000000000000000100020E3
S11301E0A81100206015002000000000000000009D
S11301F0034B5B7813B10122024B1A70704700BFA6
S1130200001000205915002008B5094B83420DD178
S113021003F089FD012809D0064B5A78012A05D03C
S113022093F9002001321CBF01225A7008BD00BF9F
S1130230FC4B00000010002010B5154C637813B976
S1130240204600F0F3F94FF0E023986902F014FF20
S113025010490F4803F0D1FCE369192B16D103F0C0
S11302600AFD0021082000F019FCFF230A4823801E
S113027000F028FC094802F0BDFB606800F060FC57
S1130280064802F0B7FB00236360E36110BD00BFC2
S113029000100020591500202044000040420F00A7
S11302A010B500F0C9FD0521112001F0BFFC0321A8
S11302B0124801F0BBFC0121114801F0B7FC0121F7
S11302C0104801F0F9F901210F4801F0F5F9012175
S11302D00E4801F0F1F90E4C01210E4801F0ECF941
S11302E001210D4801F0E8F92046012101F0E4F96B
S11302F02046BDE81040012101F0C2B802001E00F2
S1130300030020004081040000D204000092040095
S113031080062E0000A20400D0433E0070B50023E6
S11303200B4E1A461946304600F0E8FE0023094CED
S1130330094D194620461A4600F0E0FE294630468B
S113034000F098FE29462046BDE8704000F092BEB9
S113035000100040001400406848000070B5474E8B
S1130360054633781BB10121454802F037FA454C64
S1130370002D68D002F0D8F9256A15F01005FBD1DC
S113038002F0DEF90421284602F024F82946284622
S11303903D4D02F07FF83D4803F04AFD3721082027
S11303A02A8802F0C5F8372109206A8802F0C0F8CB
S11303B037210A20AA8802F0BBF837210B20EA88EB
S11303C002F0B6F8E36C23F48033E3644FF40032B4
S11303D02F4B1A6002F090F93378002B4DD0002394
S11303E0284A3370136A9B07FCD500221346294818
S11303F0244C254D10F8011B59B1032B9FBF02F16A
S1130400A00154F8211001F1FF3125F81310013334
S1130410DBB20132102AEDD11B4C3721228808208F
S113042002F086F862883721092002F081F8A28858
S113043037210A2002F07CF8E2883721BDE87040B9
S11304400B2002F075B802F06FF9256A15F010055B
S1130450FBD14FF48033636402F072F940212846E3
S113046001F0B8FF0321284602F014F80A4803F00B
S1130470DFFCE36C43F48033A7E770BDD8100020A1
S11304802848000000C008405015002028460000FD
S113049000E100E07C4800002844000070B51F49DA
S11304A0CB6C0A6C1340DB030FD54FF4803300226E
S11304B04B641B4B1B4D1C4E1C4C1A701A780F2A94
S11304C013D91B4B1B6803B19847144BDA6C196C96
S11304D00A4012F4706F1FD04FF470625A64154BC7
S11304E01B68CBB1BDE8704018471A78AA5C72B19A
S11304F0886A1A78D2B246F822001A78D2B254F82E
S1130500222082423EBF1A78D2B244F822001A78DE
S11305100132D2B21A70D1E770BD00BF00C00840EA
S11305205A1500207C480000C8110020201000202B
S1130530C4110020C0110020F0B58DB0264C06ADCA
S11305400FCC0FC594E80300083485E803000FCCF2
S113055001AD0FC5EC264FF0FF30012223681F4F79
S1130560DFF87CC02B6006AC01AD55F8041F0139DF
S113057057F821305CF821101B02B3FBF1F3B342AE
S113058038BF104602F1010238BF1E46052A44F85E
S1130590043FEAD1431C1DD00CA90CAA431E02EB54
S11305A0800201EB800050F8140C52F8182CC0F5AE
S11305B08070C2F58072C000B0FBF2F000EB031053
S11305C001EB830353F8183CC3F58073DB00B3FBE2
S11305D0F2F3C01A0DB0F0BD8C480000C811002021
S11305E02010002090F90030012B05D0022B05D0FB
S11305F033B9044800F066BA0348FBE70348F9E757
S1130600704700BFB8480000BD480000C44800005F
S11306100278022A05D8044B03EBC203D3E9000194
S11306207047002000217047D0480000F8B5044608
S1130630214D637843B300F0FFFB02F071FC0646E2
S113064020460F46FFF7E4FF02460B463046394684
S113065002F0FAF902F0DEFC0138B0F1807F0AD230
S11306604FF0E023E021154A586182F8231000225C
S11306709A6107221A61002000F0AEF9BDE8F84043
S11306800121082000F00ABAFFF756FF2378C2B20E
S11306901840FF2803D1284600F014FAC9E7FF2ABE
S11306A005D0531E48BF02F10E031B1123702046D0
S11306B0FFF798FFBDE700BFC948000000ED00E068
S11306C0F8B5002204468369002BB8BF0733DB105A
S11306D093421CBF111D14F8110002F101021CBF4A
S11306E06FF3C30004F81100072AF1D10021344844
S11306F0344D0B1D14F813705E0017F0010F30D049
S113070034F813202A4042F4807224F81320013173
S11307100729EED102F0DEFC434203F0070300F0A8
S1130720070058BF5842043004EB4001497814F8DC
S11307301020C1F30005C2F300032B4343EA111355
S1130740D90737D502F0C6FC434203F0070300F093
S1130750070058BF5842043014F81030DB07F1D4B6
S1130760F8BD2644727812F0010F05D022F0110270
S113077042F010027270CAE7C7F3C0063F07C2F323
S113078000120BD452B134F81320024042F0080294
S113079024F81320E3690133E361B8E73242B6D0A9
S11307A004EB43035A786FF304125A7063680133FD
S11307B06360EFE742F0010204F81020D0E700BFC5
S11307C0F7EFFFFFFEFEFFFF024A536E0342FCD128
S11307D0704700BF00A0084010B50022284C104606
S11307E0214601F027FD21460022012001F022FDCF
S11307F021460022022001F01DFD21460022032093
S113080001F018FD21460022042001F013FD2146C9
S11308100022052001F00EFD21460022062001F0F1
S113082009FD21460022072001F004FD0022FF21DA
S1130830104601F05BFD0022FF21012001F056FD6E
S11308400022FF21022001F051FD0022FF2103209C
S113085001F04CFD0022FF21042001F047FD00229D
S1130860FF21052001F042FD0022FF21062001F0B6
S11308703DFDBDE810400022FF21072001F036BDF8
S113088000F00FF010B5274C00220720264901F094
S1130890D1FC21460022062001F0CCFC2146002296
S11308A0052001F0C7FC21460022042001F0C2FC0F
S11308B021460022032001F0BDFC21460022022033
S11308C001F0B8FC21460022012001F0B3FC002213
S11308D04FF02041104601F0ADFC072100220846EC
S11308E001F004FD00220721062001F0FFFC002294
S11308F00721052001F0FAFC00220721042001F061
S1130900F5FC00220721032001F0F0FC002207215E
S1130910022001F0EBFCBDE8104000220721012079
S113092001F0E4BC00E00FF000E00F5010B501212D
S11309300446224800F0C0FE0321214801F076F964
S11309404021204800F09CFD012001F0B7F801216E
S11309501D4800F0B1FE1D4B1D489A6A00229A62A0
S113096001F08EFB0121082001F0C0FB01211020C1
S113097001F0BCFB0121802001F0B8FB01214FF400
S1130980807001F0B3FB01214FF4007001F0AEFB65
S113099064B14FF4402001F0FDFC4FF4803001F0CD
S11309A097FB0C4AD36F43F00803D367FFF714FF98
S11309B0BDE810404FF0FF30FFF706BFD0433E00C4
S11309C002001E0080002A0000362C0000A008400F
S11309D01049000000800C402DE9F84F42F20E73DC
S11309E0984204464BDC294B984204DB002803DB85
S11309F04FF0000A06E01C46204603F04EFA4FF082
S1130A00010A044601254FF0FF30FFF7DDFE204BBD
S1130A1000271D6603F02FF94FF00A09BAF1000F01
S1130A2001D0032F30D094FBF5F393FBF9F209FBCB
S1130A3012339BB20E264FF00008164A32F813B058
S1130A40154B06FB07364BFA08F2D30706D50122ED
S1130A5096F8CB1096F8C40001F054FB08F1010895
S1130A60B8F1070F06F10106EDD10137042F09FB98
S1130A7005F5D3D10022064B1A66BDE8F88F4FF076
S1130A80000A42F20F74BDE71023D3E719FCFFFFFD
S1130A9000A0084024490000FE4900000E280A4630
S1130AA003468BBF00210549084608569CBF0449EC
S1130AB0C95602B1012201F025BB00BFFF48000066
S1130AC0F04800002DE9F84F814603F056FA8046BD
S1130AD04FF0FF30FFF778FE0122164B00241A6610
S1130AE0FFF7D0FE144FDFF854A0A045D8BF202351
S1130AF03E464FF00005C8BF19F80430203B3AF8D1
S1130B0013B04BFA05F3DB0704D50122B17B30782F
S1130B1001F0F8FA01350E2D06F10106F1D1013488
S1130B20072C07F11C07E0D10022024B1A66BDE82E
S1130B30F88F00BF00A00840FE49000046490000AD
S1130B4037B5044608220021684603F00BFA002159
S1130B500520FFF7A3FF194B194A2344934204D9F4
S1130B601848FFF7AFFF03B030BD002CB4BF01221B
S1130B7000224FF001004FF006014FF00A05B8BF04
S1130B806442A8B1B4FBF5F305FB13433033DBB285
S1130B90B4FBF5F4201E18BF01200DF80130013913
S1130BA0EFD21AB101210520FFF778FF6846D8E794
S1130BB0002A14BF2D2320230246E9E77F969800DC
S1130BC0FE2C3101E84800002DE9F0410746124BA4
S1130BD05C6E002CFCD10122DFF840801A66464688
S1130BE00025334637F8142030782A4112F00102E8
S1130BF018BF0122997B013501F084FA0E2D06F10C
S1130C000106EED10134072C08F11C08E7D10022BB
S1130C10014B1A66BDE8F08100A00840D9100020FD
S1130C2010B500F0D5FF01210F4800F045FD012269
S1130C300020114600F0A0FF01220C4C1146A36ACB
S1130C40002023F4803323F0030343F00203A36260
S1130C5000F092FFA36A002023F4801323F00C0316
S1130C6043F00803A36210BDD0433E0000800C4053
S1130C7013B50122164B1A6401F068FE044601A85C
S1130C8001F03CFE0F2C12D99DF80430022B0ED932
S1130C909DF80520022A01D1042B08D00D4AD2F870
S1130CA0C03023F0500343F01003C2F8C03001F009
S1130CB083FE00F023F803F0C7F801F067FEFFF7A6
S1130CC0AFFF01F053FE02B0BDE8104000F00AB8D7
S1130CD000000C4000800C40014803F01FB800BF26
S1130CE0FC4B000008B50121034800F0E5FCBDE819
S1130CF0084002F0E6BF00BF00D204000121014811
S1130D0000F0DABC00D2040008B500F0B9F8124BC8
S1130D1012498B4212D30020114B12498B4218D333
S1130D20FFF72CFA186850F82240586840F822401F
S1130D30013298688242F5D30C33EAE70022F8E7DF
S1130D401C6844F8220001325C68A242F8D30833DC
S1130D50E4E70022F8E700BFE8500000F450000088
S1130D60F4500000F450000000487047006CDC02AE
S1130D70254AD36A03F47053B3F5805F3AD0B3F5D0
S1130D80005F04D0B3F5006F0BD1204B00E0204B83
S1130D901B681D4A1068C0F382300130B3FBF0F0C9
S1130DA07047D36803F4E063B3F5407F25D008D8D7
S1130DB0B3F5807F0ED0B3F5007F20D0A3B100231C
S1130DC0E7E7B3F5806F1CD0B3F5A06F114B18BFE4
S1130DD00023DEE7104B114AD3F8FC10104BB1F19D
S1130DE0985F28BF1346D4E70B4B0E4AD3F8FC1088
S1130DF00D4BF4E74FF40043CBE70C4BC9E70C4B26
S1130E00C7E70C4BC5E700BF00800C40681000200A
S1130E1064100020003FAB010081E00F40B5640086
S1130E20C0CF6A00804F120040420F00809FD5005F
S1130E30C0D8A700406F400108B5FFF799FF044BE5
S1130E405B6803F00F03D840024B186008BD00BF75
S1130E5000800C4060100020014B1868704700BFF0
S1130E6068100020044B1860044BDB6A1B0501D595
S1130E70FFF7E2BF704700BF6810002000800C40FD
S1130E80014A024B9A6070470000000000ED00E048
S1130E90014B1868704700BF641000200346054AE0
S1130EA00549106803448B428CBF4FF0FF30136038
S1130EB0704700BF6C1000200000022038B50528E0
S1130EC005460C4605D80A4B33F81030CB40DB07F7
S1130ED004D440F2D231074802F00CFF24235D43CE
S1130EE0054B2B4404EBC304A400206838BD00BFA9
S1130EF0BE4C0000144C00001C60100237B504689E
S1130F0001210546164800F0D7FB00230122617930
S1130F10207901F057F861792079FFF7CFFFB0FA13
S1130F2080F35B092370A379022B15D100F03AF802
S1130F302A460C49607900F05FF8FF28054603D182
S1130F408421094802F0D6FE0123617920792A46DA
S1130F50CDE9003300F0D2FF002003B030BD00BF64
S1130F6000D20400313D0000604C000070B5012542
S1130F7004460B4E04B970BD94FAA4F0B0FA80F0A4
S1130F8005FA00F306EB001224EA03045368002B6D
S1130F90F0D0117B11B191689847EBE79847E9E7E6
S1130FA00812002008B50B2000F020FF28B14FF4F0
S1130FB00062074BC3F880211A60012000F016FF7D
S1130FC020B10222024BC3F880211A6008BD00BF81
S1130FD000E100E038B505460C4602F011FF00229E
S1130FE0044B03EB05135C601A73BDE8384002F050
S1130FF00DBF00BF0812002070B5044615460E460A
S113100002F0FEFE084B03EB04135A684AB9FF2CA6
S113101003D00122C3E901651A7302F0F7FE2046EA
S113102070BDFF24F9E700BF08120020074BD3F876
S11310301001D3F81421104020F42A5020F02A0083
S11310404004400CC3F81C01FFF790BF006000404F
S1131050074BD3F81001D3F81421104020F4AA4010
S113106020F055000004000CC3F81C01FFF77EBFFC
S11310700060004038B51F4B044698420D4607D027
S113108003F58063984203D0A8211B4802F032FE86
S1131090EB683F2B03D9D121174802F02BFE6B6874
S11310A00F2B03D9D221144802F024FE6B7A2A7A3A
S11310B01B0143EA02236A68297843EA02636A78D7
S11310C0920742EAC17213432360EB7AAA7A1B04A3
S11310D043EA0273EA6843EA022343F0807343F06D
S11310E0B003636004F142442B7C04F58014640172
S11310F0236038BD00100040CA4C00002DE9F041C7
S1131100DD001C4B064698420F46904617D1022F2D
S113111004D94FF4EA71184802F0ECFD02F069FEBC
S11311200446336820465D4005F008055D4035609F
S113113048EA072702F061FEF761BDE8F0810F4B32
S11311409842E4D040F2D1110B4802F0D3FD022FB3
S113115004D94FF4EA71084802F0CCFD02F049FECC
S11311600446002EDDD14FF49C71054802F0C2FD07
S1131170D7E700BF00100040CA4C00000014004034
S1131180164D000010B5431EB3F5004F044604D2BB
S1131190B4FA84F0C0F11F0010BD40F69351034827
S11311A002F0A8FD002CF3D12020F3E7614D0000EC
S11311B008B5194B5B6903F4E063B3F5407F16D0BF
S11311C00DD8B3F5807F20D0B3F5007F18D0F3B1EC
S11311D041F29C61114802F08DFD00230EE0B3F54D
S11311E0C06F16D0B3F5E06FF2D10D4B06E001F0FD
S11311F0ADFB0C4B0C4A122888BF1346184608BD99
S113120001F0A4FB094B0A4AF5E70A4BF6E70A4B3F
S1131210F4E70A4BF2E700BF00800C40AC4D00003D
S1131220406F400140420F00804F1200C0CF6A005F
S113123040B56400C0D8A700809FD500003FAB0133
S1131240034B5A6DD20702D41A6D1042FCD1704779
S113125000800C4008B501F081FB4A2805D07928AC
S113126003D0482818D1104815E010490E48D1F889
S1131270E030D1F8E820D1F8EC101B0203F47C53E1
S1131280C1F3031102F0F0020B431343084AB3F510
S1131290017F28BF104608BD064841F2186102F0DC
S11312A029FD0020F7E700BF0048E80100FF0FE038
S11312B000366E01AC4D000010B50446FFF7CAFFBE
S11312C0A04207D2FFF7C6FFB4EB400F0ED80122AD
S11312D0012301E00022134605498B6705494B6849
S11312E023F4807343EA02234B6010BD0222EFE72C
S11312F00000904300800C40144B5A686FF01303B5
S113130002F00702134113F0010F114B09D1984267
S113131017D8104B104A034493422CBF00230123D7
S113132008E098420FD80B4B0B4A0344934234BF56
S11313300323022305494A6822F0070213434B6042
S113134070470423F6E70523F4E700BF00000C40D0
S11313500048E801FFDB0BFF0024F40038B541F638
S11313607133064CE56BE363FFF7FEFCADB2FFF7A8
S1131370C3FF0DB10023E36338BD00BF00000C4080
S113138038B541F67133054CE56BE363ADB2FFF755
S1131390B3FF0DB10023E36338BD00BF00000C4070
S11313A008B5C0F30313013B0C2B5AD8DFE803F054
S11313B00759590D5959141D4759595917002A4BA2
S11313C01868C0F38230013008BD274B9B6803F0D6
S11313D00F0301209840F7E7234B5B68F7E7224BA4
S11313E05B68C3F300230133F3E7204B984220D01A
S11313F00DD81F4B984212D003F58223984213D084
S113140041F62F411B4802F075FC0120DCE71A4B22
S11314109842F5D1144B9B6E03F00303D9E7124BAA
S11314209B6EC3F30313D4E70F4B9B6EC3F30323E9
S1131430CFE70D4B9B6EC3F301330433C9E70F4B66
S1131440984206D003F50433984205D041F648414A
S1131450D8E7054B1B6FDFE7034B1B6FC3F3011387
S1131460B7E741F64F41CDE700800C4080002A00E9
S113147080161200AC4D000080062E0090071A0062
S113148010B5C0F30313013B0C460C2B00F205818D
S1131490DFE813F00D00030103012500030103013C
S11314A044006700D10003010301030138004C1E0E
S11314B0072C04D941F67C41794802F01BFCFFF764
S11314C04DFF784A136823F4E03343EA843414600C
S11314D0FFF7B2FCBDE810400021FFF751BF4B1EDF
S11314E0B3F5007F04D341F68F416D4802F002FC4E
S11314F02046FFF747FE6B4A936823F00F0303432C
S1131500936010BD0846FFF73DFE664A01385368F4
S113151023F4807343EA00235360F2E74B1EB3F5D0
S1131520007F04D341F6A5415D4802F0E3FBFFF7D9
S113153015FFFFF781FCB0FBF4F0FFF7BDFE20467A
S1131540FFF720FE574A536823F00F030343536009
S1131550FFF772FC0021FFF713FFBDE81040FFF70F
S1131560ABBE514B98424FD00DD8504B984220D02F
S113157003F58223984232D041F6FE41BDE8104083
S1131580474802F0B7BB4A4B9842F5D1082904D921
S113159041F6F041424802F0ADFB0420FFF750FE53
S11315A02046FFF7EFFD3F4A936E23F00303034306
S11315B013E0B1F5004F04D941F6C341384802F0B5
S11315C099FB0420FFF73CFE2046FFF7DBFD354A7C
S11315D0936E23F0F00343EA0013936691E7B1F5A9
S11315E0004F04D941F6D1412D4802F083FB042079
S11315F0FFF726FE2046FFF7C5FD2A4A936E23F423
S1131600706343EA0023E8E7A1F11003702B04D9C7
S11316104FF4E751224802F06DFB0420FFF710FE5F
S11316202046FFF7AFFD1F4A0438936E23F440535E
S113163043EA0033D1E71F4B984206D003F5043345
S1131640984216D041F6245198E7082904D941F666
S11316500751134802F04EFB4020FFF7F1FD2046EE
S1131660FFF790FD0F4A136F23F00303034313673F
S113167047E7082904D941F61651094802F03AFB14
S11316804020FFF7DDFD2046FFF77CFD054A136F80
S113169023F0300343EA0013E9E741F62A516DE7EA
S11316A0AC4D000000800C4080002A00801612001F
S11316B080062E0090071A0070B5C0F30323013B87
S11316C004460E46092B16D8DFE803F0302C051526
S11316D015272015151CFFF7AFFBFFF7EDFD154D82
S11316E0C4F3043405F1424505F5801504EBC50443
S11316F0A400266070BD41F6B051BDE870400E48AC
S113170002F0F8BA0D4DC0F30434EBE7C0F304342F
S113171010200B4DFFF794FDE4E7C0F30434094DAA
S11317200120F7E7084DC0F30434DBE7074DC0F3AD
S11317300434D7E740800C40AC4D000078800C4066
S113174060800C4058800C4044800C4008800C4061
S113175008B500F00F00013806284CD8DFE800F087
S11317600414254B4B333B00294BDB6A03F47053C1
S1131770B3F5805F4AD0B3F5005F45D0B3F5006F91
S11317800CBF0420052008BD214B986A00F003001B
S11317900228F8D0032835D0012837D09B6A13F4E7
S11317A0803F0CBF01200A20EDE7194A936A03F039
S11317B00C03082B28D00C2B24D0042B26D0936A9E
S11317C013F4801FEDE7124B1B6813F0805F0CBF0E
S11317D007200920D7E70E4BDB6A03F46033B3F527
S11317E0803F11D0B3F5003F10D0B3F5004F0CBFCC
S11317F009200120C7E7074842F2013102F07AFAD2
S11318000020C0E70620BEE70220BCE70320BAE7B9
S113181000800C40AC4D000010B52B4B04469842A0
S113182023D02A4B984213D041F61311284802F0D2
S113183061FA2046FFF78CFF044641F64211244822
S113184002F058FA032C37D8DFE804F03B1C2024BC
S1131850FFF77EFF1F4A936AC3F38103013B022B08
S113186027D8DFE803F00F131700FFF771FF194AB9
S1131870936A03F00303013B022B12D8DFE803F061
S113188002060A00BDE8104002F02EBABDE810407E
S1131890FFF7FEBAFFF7D0FA0F4B9B6F0133D84026
S11318A010BD936A1022D3400BD0BDE8104002F063
S11318B01EBA936A1422F6E741F66D11044802F049
S11318C019FA0020ECE700BF02001E00030020000C
S11318D0AC4D000000800C400000904338B500F48B
S11318E07813B3F5E01F054600F087802ED8B3F5D2
S11318F0801F00F0918018D8B3F5802F50D006D8FF
S11319007BB1B3F5003F53D04FF4F7517FE0B3F50B
S1131910602FF9D15048FFF71BFF07287CD0092816
S113192073D1BDE83840FFF723BAB3F5B01F43D0F5
S1131930B3F5D01F5BD0B3F5901FE5D14748FFF74F
S11319406BFF474B9B6EC3F303132FE0B3F5281FC4
S11319503AD00DD8B3F5001F47D0B3F5181F5FD0A8
S1131960B3F5F01FD0D13D48BDE83840FFF754BF70
S1131970B3F5381F31D0B3F5781F63D0B3F5301FFA
S1131980C2D13648FFF748FF354A936EC3F301339B
S1131990D840D36F03F007030133B0FBF3F038BD35
S11319A0FFF7E6F92E4B9B6803F00F03D840F6E7E8
S11319B0BDE83840FFF740BA2848FFF72DFF284B11
S11319C09B6EC3F30323F1E72448FFF725FF244B61
S11319D09B6EC3F301330433E8E72048FFF71CFF91
S11319E01F4B9B6E03F00303E0E71E48BCE71D4852
S11319F0FFF712FF1A4B1B6FF4E71A48FFF70CFFAF
S1131A00174B1B6FC3F30113D0E741F2D66116489D
S1131A1002F070F90020C2E7BDE83840FFF7C8BB08
S1131A201248FFF795FE032808D009283FF479AF40
S1131A300228EFD1BDE83840FFF72ABABDE83840A4
S1131A4002F052B9FFF7F8F904462846FFF7A8FC5C
S1131A50B4FBF0F0A3E700BF06000E0002001E0076
S1131A6000800C4003002000AC4D0000072326003A
S1131A7010B504461120FFF76BFE042804D142F68A
S1131A8073210C4802F036F908230B4A13621368D9
S1131A90E17823F4D16323F007030B43617843EA2D
S1131AA04123217843EA8103A17843EAC1131360F7
S1131AB010BD00BFAC4D000000800C4010B5802864
S1131AC0044604D942F60D31074802F013F9074AD7
S1131AD0936D1B0706D4D36F04F0070423F00703A8
S1131AE02343D36710BD00BFAC4D000000800C4001
S1131AF070B505461120FFF72BFE022804D142F6EB
S1131B002B31144802F0F6F84FF40073124E33628E
S1131B10AC786B78E40244EA83442B78C3F3400343
S1131B2044EA433402F065F933685C4024F07F44AE
S1131B3024F4730424F4474424F0FF045C40346028
S1131B4002F05BF92B78054A03F00103C2F8A034D4
S1131B5070BD00BFAC4D000000800C4000008C4301
S1131B60014B1880704700BFD6100020014B18802D
S1131B70704700BFD410002030B404280BD80E4B9B
S1131B801C5C0E4B33F810500D4B33F810000D4B0A
S1131B9039B918620DE042F6F93130BC0A4802F056
S1131BA0A9B81D622AB1094B23449B001A68002A74
S1131BB0FCD030BC704700BF0C4E0000024E000049
S1131BC0F84D000000800C40AC4D00006001E410B2
S1131BD008B5FFF73FFB0130FFF76EFBFFF73CF959
S1131BE0104A114B984213684FF0020096BF23F03D
S1131BF0600343F0600343F02003136001221146A5
S1131C00FFF7BAFFFFF7AAFB0222064B5A62FFF75F
S1131C1013F9FFF751FBFFF70FF9BDE80840002166
S1131C20FFF7AEBB00800C400048E80110B500F09F
S1131C300F04631E062B00F2CD80DFE803F0044E90
S1131C404ECBCB91A300023908293DD8DFE801F03F
S1131C503F42052E3C3C3C3C3500FFF7FBFA01308B
S1131C60FFF72AFBFFF7F8F85C4B5D4A98421368CC
S1131C7017D943F060030220044613600122114681
S1131C80FFF77AFFFFF76AFB554B5C62FFF7D4F866
S1131C900446FFF711FB2046BDE810400021FFF782
S1131CA06FBB23F0600343F02003E4E7FFF7D2FAAD
S1131CB00130FFF701FB0320E0E742F22F51BDE8BA
S1131CC01040484802F016B842F23451F7E70020B9
S1131CD00424D3E701200324D0E7013909292DD8AE
S1131CE0DFE801F02F05192C2C212C2C2C32012299
S1131CF000201146FFF740FF002302213848022C40
S1131D00826A23D122F4803222F003020A4342EA97
S1131D100342826210BD012211461046FFF72CFFD8
S1131D2000230121EAE7FFF787F8FFF7C5FA01224C
S1131D302D4B0321C3F810280023DFE742F2DD51C5
S1131D40BDE700230021D9E70123FBE71B0522F4AB
S1131D50801243EA810322F00C0213438362D9E721
S1131D60072904D0092908D042F23861A7E71C4AA0
S1131D70136823F080531360CCE7194A136843F0C7
S1131D808053F8E703290FD0092919D002291ED15D
S1131D90012200201146FFF7EFFE4022104B5A6249
S1131DA0DA6AD003FCD5B5E7012211461046FFF7E5
S1131DB0E3FE60220A4B5A62DA6A9103FCD5A9E772
S1131DC02022074B5A62DA6A1204FCD5A2E742F2D7
S1131DD0776174E742F26D7171E700BF0048E80172
S1131DE000800C40AC4D00000000904310B5C3B21D
S1131DF0262B044604D94FF44D71074801F07AFFAD
S1131E00064B620953F8220004F01F04E040C0436B
S1131E1000F0010010BD00BF114E000000E100E021
S1131E2010B504798378094923430478CA6A43EADC
S1131E300443C478407822F4803243EA440322F015
S1131E401F0243EA00131343CB6210BD00600C4031
S1131E5038B5052804460D4605D80A4B33F810302A
S1131E60CB40DB0704D44FF48661074801F042FFFE
S1131E7024220123544304F18044AB4004F5C044BC
S1131E80236138BDAA4E0000144C000038B5052863
S1131E9004460D4605D80A4B33F81030CB40DB0717
S1131EA004D440F20141074801F024FF2422012315
S1131EB0544304F18044AB4004F5C044636138BD2D
S1131EC0AA4E0000144C000038B5052804460D46FF
S1131ED001D8032903D96821074801F00BFF242303
S1131EE003FB04F000F1804000F5C040036823F0D8
S1131EF003032B43036038BD5D4E00002DE9F84316
S1131F0005280646154698469DF8209006D8254B88
S1131F1033F8103023FA01F1CB0703D4BF21224850
S1131F2001F0E8FE0127214C072D2C444FF0070156
S1131F3007FA05F74FEA84040FD81D4B1D482344C4
S1131F4006FA03F2994001F064FF1B4B44F8808CBD
S1131F50C4F80090C3F81C711DE0A5F108039B00B0
S1131F60164806FA03F2994001F053FF1F2DECD9ED
S1131F709121134801F0BEFE9121114844F8808C50
S1131F8001F0B8FE0C4BC4F8009091210C48C3F842
S1131F901C7101F0AFFE9DF82430C4F88030BDE818
S1131FA0F88300BFAA4E00005D4E00006008831055
S1131FB080DEF3BD00610040006000400461004029
S1131FC0164D0000F8B5052805460C4616461F4672
S1131FD005D81C4B33F81030CB40DB0704D44FF446
S1131FE0B071194801F086FE26B121462846C7B1D2
S1131FF0FFF72EFF2423072C4FF00F0105FB03F3FB
S113200012D8A00006FA00F281401048184401F0EA
S113201000FFAEB92146284677B1BDE8F840FFF786
S113202017BFFFF733FFE5E7A4F10800800006FAC5
S113203000F281400648E9E7BDE8F840FFF726BF13
S1132040F8BD00BFAA4E00005D4E000004600040D1
S11320500860004070B51F2905460C46164603D992
S11320609121064801F046FE05F1424000F580103A
S113207004EBC004A400266070BD00BF164D000030
S113208070B5114D04466E6818B946210F4801F029
S113209031FE2B68E26823F001032B60636813436D
S11320A026F4830222F01F021343227A1343627A36
S11320B01A43238A13436B6023781BB12B6843F0C4
S11320C001032B6070BD00BF00A00840B64E0000A5
S11320D0054AB0F5803F536823F4803308BF43F4C6
S11320E080335360704700BF00A00840044B9A68D7
S11320F011B102439A60704722EA0002FAE700BF76
S113210000A0084037B5072805460C4613DD40F209
S11321102721374801F0EEFD272C04DD40F22E2163
S1132120334801F0E7FD4FF42671314803B0BDE8B0
S1132130304001F0DFBD27290EDD40F22E212C486E
S1132140019201F0D7FD019A072DECD8DFE805F0E4
S1132150141C242C343C444C0728E4D8DFE800F059
S113216004101820283038401F2905DC214803B00A
S1132170BDE83040FFF76EBF1F48A4F12001F6E729
S11321801F2901DC1D48F2E71D48A4F12001EEE7F8
S11321901F2901DC1B48EAE71B48A4F12001E6E7FC
S11321A01F2901DC1948E2E71948A4F12001DEE700
S11321B01F2901DC1748DAE71748A4F12001D6E704
S11321C01F2901DC1548D2E71548A4F12001CEE708
S11321D01F2901DC1348CAE71348A4F12001C6E70C
S11321E01F2901DC1148C2E71148A4F12001BEE710
S11321F0B64E000040A0084050A0084044A008404B
S113220054A0084048A0084058A008404CA00840EA
S11322105CA00840CCA00840B4A00840D0A008406E
S1132220B8A00840D4A00840BCA00840D8A00840EA
S1132230C0A0084008B507280BDD40F20331294847
S113224001F058FDBDE8084040F24331254801F053
S113225051BD0728F6D8DFE800F0040B1219202935
S1132260323B214B186C42400A4042401A6408BD7C
S11322701D4B586C42400A4042405A64F7E71A4BDF
S1132280986C42400A4042409A64F0E7164BD86C7E
S113229042400A404240DA64E9E7134BD3F8CC00E9
S11322A042400A404240C3F8CC20E0E70E4BD3F84A
S11322B0D00042400A404240C3F8D020D7E70A4B3E
S11322C0D3F8D40042400A404240C3F8D420CEE7B9
S11322D0054BD3F8D80042400A404240C3F8D82006
S11322E0C5E700BFB64E000000A00840072804DD83
S11322F04FF45771254801F0FDBC072844D8DFE8A6
S113230000F0040B12192029323B214B186D424076
S11323100A4042401A6570471D4B586D42400A40BE
S113232042405A6570471A4B986D42400A404240F9
S11323309A657047164BD86D42400A404240DA65B0
S11323407047134BD3F8B40042400A404240C3F8EC
S1132350B42070470E4BD3F8B80042400A404240C4
S1132360C3F8B82070470A4BD3F8BC0042400A4077
S11323704240C3F8BC207047054BD3F8C00042402C
S11323800A404240C3F8C020704700BFB64E000068
S113239000A00840034A536823F4E0130343536046
S11323A0704700BF00A0084070B51F2905460C46C1
S11323B0164603D99121064801F09CFC05F14240E0
S11323C000F5801004EBC004A400266070BD00BFBB
S11323D0164D00002DE9F0410F46044618B91F4878
S11323E0FFF77CFA04466FF07E439C4204D34FF41B
S11323F0A8711B4801F07EFC0FB1BC4204D240F22C
S11324005311174801F076FC4FF0010800264346AB
S113241007FB08F5B4FBF5F5402D01D9072E18D1BB
S11324206F1EFF2F04D94FF4B0710D4801F062FC08
S11324300C4A08FB05F05368B4FBF0F023F47F2347
S113244023F4E06343EA062343EA07335360BDE819
S1132450F081013603FA06F8DAE700BF80062E00A1
S1132460014F000000C0084010B50328044604D9F9
S113247040F2E511054801F03DFC054A536823F498
S1132480400343EA8453536010BD00BF014F000072
S113249000C0084010B50C4678B1012815D10329B5
S11324A004D94FF40E710C4801F024FC0B4A536814
S11324B023F003031C43546010BD084A536823F0FF
S11324C0700343EA01135360F6E74FF41471BDE857
S11324D01040014801F00EBC014F000000C008404C
S11324E0F8B53F2905460E4617461C4604D940F266
S11324F0D6310D4801F0FEFB7F2C04D940F2D731D0
S1132500094801F0F7FB3B0604D540F2DA310648EE
S113251001F0F0FB6403054B44EA87122C35324387
S11325202D015A51F8BD00BF014F000000C0084002
S113253070B5B1F5805F04460D46164604D340F2EB
S11325402641104801F0D6FB0F2C04D94FF48561C5
S11325500C4801F0CFFB200100F1804202F50C226F
S1132560D2F8C43223F47F6323F00F031D43C2F86F
S1132570C452D2F8C8321B0C1B041E43C2F8C862F2
S113258070BD00BF014F0000F8B50F2904460D4689
S113259004D940F2A9214A4801F0ACFBE37B3F2B6C
S11325A004D940F2AA21464801F0A4FB638A7F2B98
S11325B004D940F2AB21424801F09CFB94F910305D
S11325C0002B04DA40F2B1213D4801F093FBA38AC9
S11325D0B3F5805F04D340F2B721394801F08AFB98
S11325E06368B3F5C03F09D14FF20F032B41DB07FA
S11325F004D440F2B921324801F07CFB237A032B46
S113260008D1A5F10C03032B4ED840F2C2212C486B
S113261001F070FB03232B4E6900B26B8B4022EA5E
S11326200302237AEFB28B401343B3633846638AC1
S1132630227CE17BFFF754FFA37B627B9B0443EA8C
S113264042436268218B1343E28A38460A4392B2BA
S11326501343627AA18A43EAC24305F12C0206EBD2
S113266002125360237BA27A9B0443EA4243E26949
S113267006EB05161343E27A43EAC243C6F8C832AE
S1132680628BFFF755FF2946A2780F48FFF78CFEAF
S1132690294662780D48FFF787FE294622780C48C0
S11326A0BDE8F840FFF780BE40F2BD21044801F0C8
S11326B021FB237A032BADD1032DABD9A5E700BFB2
S11326C0014F000000C008404CC0084054C00840FE
S11326D018C0084010B50F28044604D940F2C6516A
S11326E0034801F007FB034B04F00F041C6310BD07
S11326F0014F000000C00840044B1A6D9106FCD441
S113270001225A611A6D9206FCD4704700C0084039
S1132710044A136823F003031843106009B1FFF758
S1132720EBBF704700C00840044B1A6D9106FCD4FF
S113273002225A611A6D9206FCD4704700C0084008
S1132740044B1A6D9106FCD408225A611A6D920644
S1132750FCD4704700C0084030B500231D4AD36440
S11327601D4B5364D36843F00103D360136D13F01E
S11327702003FBD10A211C46516113609360D3608E
S1132780136193619363D363536353651A46114D85
S1132790110101F18040013200F50C202944102A76
S11327A0C0F8C042C0F8C442C1F8C842F0D1002108
S11327B0DA0002F18042013302F50C22102BC2F838
S11327C00012C2F80412F3D1024A136D9B06FCD422
S11327D030BD00BF00C00840FFFF7F0038B5037D57
S11327E00446032B0D4603D97821424801F082FAAE
S11327F0A37F1F2B03D97A213E4801F07BFA0DB148
S1132800FFF7AAFF207DFFF72FFED4E9023213431E
S1132810A278394D13436278002143EA8203E278B7
S113282043EA4223227943EA8223627943EA423328
S1132830A27943EA4243E27943EA0243627C43EAEF
S113284082532B602078FFF763FFA26A236A134345
S1132850227E1343E27E43EA4203627E43EA82031A
S1132860A27E43EA8213227F43EA0213627F43EA91
S11328700223A27F43EA822394F8242043EA0253EA
S113288094F8252043EA8253AB6094F83C3094F8E2
S11328903B209B0343EA8223A28D134394F83D20FB
S11328A043EA824394F83E2043EA825394F8342066
S11328B043EA420394F8352043EA820394F836202D
S11328C043EAC20394F8372043EA021394F8382009
S11328D043EA421394F8392043EA821394F83A20E5
S11328E043EAC213EB60206BFFF7F4FE237C2B61F9
S11328F038BD00BF014F000000C0084010B50446B9
S113290018B957210F4801F0F5F90F4AD2F8E4300D
S1132910D2F8E0109B0003F03C03C1F381110B4398
S1132920A370D2F8E03003F03F036370D2F8E830CC
S1132930D2F8EC2003F0F003C2F303121343237024
S113294010BD00BF504F000000FF0FE0024BD3F852
S1132950FC00000E704700BF0081E00F024BD3F86B
S1132960FC00C0F3074070470081E00F07B5064B39
S113297018681B79009068468DF80430FFF750FA08
S1132980002003B05DF804FB9E4F000007B5084B20
S1132990186801900748FEF765FA01A8FFF768F880
S11329A03220FFF7E3F8002003B05DF804FB00BF1A
S11329B0A34F0000006CDC0210B56FF00403A021EB
S11329C00A480B4C13F0800F03F1010207D1234492
S11329D0272A83F800131346F4D1002010BD03F016
S11329E00F03043B034419761346EBE700ED00E0C4
S11329F000E100E010B50446FEF71EFA4FF47A72C7
S1132A009042B0FBF2F105D23621BDE810400B48EC
S1132A1001F070B90A4BB3FBF1F30A49884201D9BA
S1132A203C21F2E702FB04F0B0FBF3F0032804D9E5
S1132A30BDE810408008FDF753BB10BDA74F000050
S1132A4040420F00E7CD9A3B70B54FF0FF0C4CF4B9
S1132A50E06C1CEA11541DBF1CEA135594EA0C0FD8
S1132A6095EA0C0F00F0DEF82C4481EA030621EA13
S1132A704C5123EA4C5350EA013518BF52EA03354E
S1132A8041F4801143F4801338D0A0FB02CE4FF000
S1132A900005E1FB02E506F00042E0FB03E54FF030
S1132AA00006E1FB03569CF0000F18BF4EF0010E28
S1132AB0A4F1FF04B6F5007F64F5407404D25FEA24
S1132AC04E0E6D4146EB060642EAC62141EA5551D7
S1132AD04FEAC52040EA5E504FEACE2EB4F1FD0C19
S1132AE088BFBCF5E06F1ED8BEF1004F08BF5FEA97
S1132AF0500E50F1000041EB045170BD06F0004649
S1132B0046EA010140EA020081EA0301B4EB5C04F5
S1132B10C2BFD4EB0C0541EA045170BD41F48011ED
S1132B204FF0000E013C00F3AB8014F1360FDEBF12
S1132B30002001F0004170BDC4F10004203C35DAEE
S1132B400C341BDC04F11404C4F1200500FA05F371
S1132B5020FA04F001FA05F240EA020001F0004212
S1132B6021F0004110EBD37021FA04F642EB060188
S1132B705EEA430E08BF20EAD37070BDC4F10C04B2
S1132B80C4F1200500FA04F320FA05F001FA04F276
S1132B9040EA020001F0004110EBD37041F1000162
S1132BA05EEA430E08BF20EAD37070BDC4F120056D
S1132BB000FA05F24EEA020E20FA04F301FA05F2D5
S1132BC043EA020321FA04F001F0004121FA04F27D
S1132BD020EA020000EBD3705EEA430E08BF20EA4D
S1132BE0D37070BD94F0000F0FD101F00046400087
S1132BF041EB010111F4801F08BF013CF7D041EA09
S1132C00060195F0000F18BF704703F0004652000C
S1132C1043EB030313F4801F08BF013DF7D043EADD
S1132C200603704794EA0C0F0CEA135518BF95EA93
S1132C300C0F0CD050EA410618BF52EA4306D1D11A
S1132C4081EA030101F000414FF0000070BD50EA39
S1132C50410606BF1046194652EA430619D094EAC3
S1132C600C0F02D150EA013613D195EA0C0F05D1AD
S1132C7052EA03361CBF104619460AD181EA030101
S1132C8001F0004141F0FE4141F470014FF00000B9
S1132C9070BD41F0FE4141F4780170BD81F0004106
S1132CA002E000BF83F0004330B54FEA41044FEA2D
S1132CB0430594EA050F08BF90EA020F1FBF54EAC8
S1132CC0000C55EA020C7FEA645C7FEA655C00F064
S1132CD0E2804FEA5454D4EB5555B8BF6D420CDD35
S1132CE02C4480EA020281EA030382EA000083EAB8
S1132CF0010180EA020281EA0303362D88BF30BD58
S1132D0011F0004F4FEA01314FF4801C4CEA1131AD
S1132D1002D0404261EB410113F0004F4FEA03330C
S1132D204CEA133302D0524263EB430394EA050F97
S1132D3000F0A780A4F10104D5F1200E0DDB02FA06
S1132D400EFC22FA05F2801841F1000103FA0EF29A
S1132D50801843FA05F359410EE0A5F120050EF160
S1132D60200E012A03FA0EFC28BF4CF0020C43FA91
S1132D7005F3C01851EBE37101F0004507D54FF09E
S1132D80000EDCF1000C7EEB00006EEB0101B1F5EE
S1132D90801F1BD3B1F5001F0CD349085FEA300034
S1132DA04FEA3C0C04F101044FEA445212F5800F3F
S1132DB080F09A80BCF1004F08BF5FEA500C50F1DC
S1132DC0000041EB045141EA050130BD5FEA4C0CBF
S1132DD0404141EB0101013C28BFB1F5801FE9D21C
S1132DE091F0000F04BF01460020B1FA81F308BF3F
S1132DF02033A3F10B03B3F120020CDA0C3208DD0B
S1132E0002F1140CC2F10C0201FA0CF021FA02F1E5
S1132E100CE002F11402D8BFC2F1200C01FA02F155
S1132E2020FA0CFCDCBF41EA0C019040E41AA2BF7A
S1132E3001EB0451294330BD6FEA04041F3C1CDA42
S1132E400C340EDC04F11404C4F1200220FA04F062
S1132E5001FA02F340EA030021FA04F345EA03010C
S1132E6030BDC4F10C04C4F1200220FA02F001FACE
S1132E7004F340EA0300294630BD21FA04F0294650
S1132E8030BD94F0000F83F4801306BF81F48011E9
S1132E900134013D4EE77FEA645C18BF7FEA655C5C
S1132EA029D094EA050F08BF90EA020F05D054EA2E
S1132EB0000C04BF1946104630BD91EA030F1EBF33
S1132EC00021002030BD5FEA545C05D14000494137
S1132ED028BF41F0004130BD14F580043CBF01F52A
S1132EE0801130BD01F0004545F0FE4141F4700110
S1132EF04FF0000030BD7FEA645C1ABF19461046EB
S1132F007FEA655C1CBF0B46024650EA013406BFEB
S1132F1052EA033591EA030F41F4002130BD00BFAA
S1132F2090F0000F04BF0021704730B54FF4806467
S1132F3004F132044FF000054FF0000150E700BFE8
S1132F4090F0000F04BF0021704730B54FF4806447
S1132F5004F1320410F0004548BF40424FF0000134
S1132F603EE700BF42004FEAE2014FEA31014FEA77
S1132F7002701FBF12F07F4393F07F4F81F06051C6
S1132F80704732F07F4208BF704793F07F4F04BF11
S1132F9041F40021704730B54FF4607401F00045EE
S1132FA021F000411CE700BF50EA010208BF70474E
S1132FB030B54FF000050AE050EA010208BF70473F
S1132FC030B511F0004502D5404261EB41014FF4A8
S1132FD0806404F132045FEA915C3FF4D8AE4FF0B0
S1132FE003025FEADC0C18BF03325FEADC0C18BF93
S1132FF0033202EBDC02C2F1200300FA03FC20FAE4
S113300002F001FA03FE40EA0E0021FA02F1144430
S1133010BDE600BF4A0011D212F5001211D20DD53F
S11330206FF47873B3EB62520ED44FEAC12343F0CA
S1133030004343EA505323FA02F070474FF0000074
S1133040704750EA013002D14FF0FF3070474FF023
S11330500000704708B5064B044613B10021AFF3D6
S11330600080044B1B6803B19847204600F046FEDD
S1133070000000004015002038B5104B04461D68C0
S11330802B6BB3B9182000F0D7F90246286320B996
S113309046210B4B0B4800F069F90B490B4BC0E977
S11330A000130B4B002183600B2383810120C2E9B1
S11330B0040100222B6B1C615A6138BD7C10002076
S11330C0FE4F0000155000000E33CDAB34126DE6F8
S11330D0ECDE0500164B10B51C68236BB3B9182041
S11330E000F0AAF90246206320B95221114B12487C
S11330F000F03CF91149124BC0E90013114B0021B7
S113310083600B2383810120C2E90401216B0E48F3
S11331100B694C6958430D4A02FB0400A3FB0232BD
S1133120013340EB0200C1E9043020F0004010BD3F
S11331307C100020FE4F0000155000000E33CDAB74
S113314034126DE6ECDE05002DF451582D7F954CBC
S1133150002310B50446C0E90033C0E9043383609A
S113316081814366C2818361194608225C3000F084
S1133170F9FE0D4B246263620C4BA3620C4BE362B9
S11331800C4B23630C4B9C4206D003F1680294421F
S113319002D0D0339C4205D104F15800BDE8104060
S11331A000F0E8BE10BD00BFDF3E0000013F00009C
S11331B0393F00005D3F000008140020024A034923
S11331C0034800F06EBE00BF701000208B4000006A
S11331D08010002041680C4B10B59942044601D080
S11331E000F053FFA168094B994202D0204600F039
S11331F04CFFE168064B994204D02046BDE81040DC
S113320000F043BF10BD00BF08140020701400205C
S1133210D814002010B50B4B0B4C0C4A20461A60F6
S113322004210022FFF794FF04F168000122092120
S1133230FFF78EFF04F1D0000222BDE810401221F6
S1133240FFF786BF4015002008140020BD310000A0
S1133250014800F090BE00BF5C150020014800F05A
S11332608BBE00BF5C15002010B50446FFF7F0FFCD
S1133270236A1BB1BDE81040FFF7F0BF044B236283
S1133280044B1B68002BF5D1FFF7C4FFF2E700BF26
S1133290D53100004015002038B50023054D044603
S11332A008462B6000F027FD431C02D12B6803B1B4
S11332B0236038BD4415002038B50446084611463D
S11332C00022054D2A601A4600F022FD431C02D15B
S11332D02B6803B1236038BD4415002038B504467B
S11332E0084611460022054D2A601A4600F012FDD8
S11332F0431C02D12B6803B1236038BD4415002060
S113330038B50446084611460022054D2A601A467F
S113331000F002FD431C02D12B6803B1236038BDC9
S11333204415002070B500260C4D0D4C641BA410F0
S1133330A64209D101F054F800260A4D0A4C641B38
S1133340A410A64205D170BD55F8043B9847013638
S1133350EEE755F8043B98470136F2E7A011002048
S1133360A0110020A0110020A41100201FB51446B4
S11333701A46094B05461B68D86854B9074B1C46C6
S1133380CDE9013400912B46054900F003F900F022
S1133390A4FE044BF4E700BF7C100020A9500000F9
S11333A07B5000006E50000038B50546002940D01F
S11333B051F8043C0C1F002BB8BFE41800F0DEF8F1
S11333C01C4A136833B9636014602846BDE838406A
S11333D000F0DAB8A34208D9206821188B4201BF53
S11333E019685B6809182160EDE71A465B680BB140
S11333F0A342FAD911685018A0420BD120680144A5
S1133400501883421160E0D118685B68084410606A
S11334105360DAE702D90C232B60D6E72068211821
S11334208B4201BF19685B680918216063605460AE
S1133430CBE738BD4C150020024B0146186800F05C
S113344025B800BF7C10002070B50F4E0C463168C3
S1133450054611B900F0B0F830602146284600F066
S1133460ABF8431C03D14FF0FF34204670BDC41C9D
S113347024F00304A042F8D0211A284600F09CF856
S11334800130F2D1EFE700BF481500202DE9F041EB
S1133490CD1C25F0030508350C2D38BF0C25002D57
S11334A0064601DBA94204D90C2333600020BDE8A1
S11334B0F081314F00F062F83B681C4644BB29465A
S11334C03046FFF7C1FF431C044650D13C682146F7
S11334D0002941D1002C44D02368304604EB030872
S11334E000F06AF880453CD1216830466D1A2946BF
S11334F0FFF7AAFF013034D023682B4423603B68D4
S1133500002B36D05A68A24229D100225A600EE01C
S11335102268521B1DD40B2A16D96119A3422560B7
S113352018BF5960636808BF396062514B60304608
S113353000F02AF804F10B00231D20F00700C21A42
S1133540B5D01B1AA350B2E7A3426268DED13A6039
S1133550EDE723466468B1E70C464968B8E71346CB
S1133560CEE70C233046336000F00EF89EE705608A
S1133570DDE75B60FFDE00BF4C150020014800F072
S1133580FABC00BF5B150020014800F0F5BC00BF89
S11335905B1500200EB403B5014603AB054853F890
S11335A0042B0068019300F017F802B05DF804EBF7
S11335B003B070477C10002038B50023054D044645
S11335C008462B60FDF76AFC431C02D12B6803B14B
S11335D0236038BD441500202DE9F04F0D461446F4
S11335E0984606469DB018B1036A0BB9FFF73CFE36
S11335F06B6ED90705D4AB899A0502D4A86D00F087
S1133600BAFCAB891B0701D52B699BB92946304607
S113361000F026FA70B16B6EDC0704D54FF0FF3072
S11336201DB0BDE8F08FAB899805F7D4A86D00F004
S1133630A3FCF3E70023099320238DF829303023DA
S11336404FF00109CDF80C80DFF8A8818DF82A30FD
S113365023469A4613F8012B0AB1252AF9D1BAEB6D
S1133660040B0BD05B4622462946304600F051FD40
S1133670013000F0A780099A5A4409929AF8003060
S1133680002B00F09F8000234FF0FF32CDE905238B
S11336900AF1010A049307938DF853301A935446A0
S11336A0052214F8011B534800F01FFE049AD8B9F0
S11336B0D10644BF20238DF85330130744BF2B2376
S11336C08DF853309AF800302A2B15D05446002038
S11336D04FF00A0C079A214611F8013B303B092BA5
S11336E04BD9B0B1079214E0A0EB080309FA03F335
S11336F01343A2460493D2E7039B191D1B6803914D
S1133700002BBBBF5B4242F0020207930793B8BF92
S1133710049223782E2B0AD163782A2B32D1039B6F
S113372002341A1D1B68039243EAE3730593DFF81E
S1133730C8A003225046217800F0D7FD38B14022BA
S1133740049BA0EB0A00824013430134049314F851
S1133750011B062229488DF8281000F0C6FD002818
S11337603FD0274B1BBB039B073323F007030833CE
S11337700393099B3B4409936AE70C4601200CFB25
S11337800232A8E700234FF00A0C194601340593CE
S1133790204610F8012B303A092A03D9002BC6D051
S11337A00591C4E7044601230CFB0121F0E703ABB8
S11337B000932A463046134B04A9AFF30080074612
S11337C0781CD6D16B6ED90705D4AB899A0502D47F
S11337D0A86D00F0D1FBAB895B063FF51FAF0998DC
S11337E01EE703AB00932A463046064B04A900F0BB
S11337F00BF8E4E7AA500000B0500000B4500000F9
S113380000000000134100002DE9FF470F7E9146A0
S1133810782F80460C469A460C9E01F1430207D845
S1133820622F0AD8002F00F0DD80582F00F0C380EB
S113383004F1420684F842703AE0A7F16303152BC1
S1133840F6D801A151F823F0A1380000B5380000E2
S113385031380000313800003138000031380000C0
S1133860B53800003138000031380000313800002C
S113387031380000CB39000043390000833900009F
S11338803138000031380000ED39000031380000D3
S11338904339000031380000313800008B39000012
S11338A033681A1D1B68326004F1420684F8423002
S11338B00123A8E031682368081D30601E0601D585
S11338C00D6803E05D06FBD5B1F90050002D616879
S11338D078DA2D20002984F84300A1602DDA0A2328
S11338E05D486D421646B5FBF3F103FB1157C75D06
S11338F006F8017D2F46BB420D46F4D9082B0BD1A7
S11339002368DF0708D5236961689942DEBF302345
S113391006F8013C06F1FF36921B22614B46214614
S11339204046CDF800A003AA00F005FC01306FD199
S11339304FF0FF3004B0BDE8F08723F004032360A8
S1133940CDE721683368080653F8045B02D44906BE
S113395048BFADB26F2F336014BF0A2308233E481B
S1133960002184F843106668002EA660BADB216843
S113397021F004012160002DB4D1002EB2D11646ED
S1133980BCE7236843F0200323607827334884F896
S11339904570236831681F0651F8045B02D45F0642
S11339A048BFADB23160D90744BF43F02003236060
S11339B01DB11023D4E72848E9E7236823F0200346
S11339C02360F6E70A232448CDE733682568181DE9
S11339D0616930602E061B6801D5196002E0680633
S11339E0FBD5198000231646236197E7336800212D
S11339F01A1D32601E686268304600F076FC08B119
S1133A00801B606063682361002384F8433085E78A
S1133A103246494640462369D047013088D023685E
S1133A209B0714D4E068039B9842B8BF184681E70B
S1133A300123324649464046D04701303FF478AF2F
S1133A400135E36803995B1AAB42F1DCEAE7002530
S1133A5004F11906F5E700BFBB500000CC5000008C
S1133A6038B5294B054618680C4618B1036A0BB9DA
S1133A70FFF7FAFBB4F90C30190722D4DA0607D49D
S1133A8009222A6043F040034FF0FF30A38133E062
S1133A90580712D5616B41B104F14403994202D035
S1133AA02846FFF781FC00236363A38923F02403E2
S1133AB0A3810023636023692360A38943F008037F
S1133AC0A38123694BB9A38903F42073B3F5007F61
S1133AD003D02146284600F03BFCB4F90C3013F027
S1133AE001020AD00022A26062695242A2612269E4
S1133AF042B913F08000C5D138BD990758BF626937
S1133B00A260F4E70020F7E77C100020024B014696
S1133B10186800F0C0BB00BF7C10002038B500233B
S1133B20064D0446084611462B6000F0EEF8431C8F
S1133B3002D12B6803B1236038BD00BF44150020B7
S1133B4038B50023064D0446084611462B6000F0A4
S1133B50D6F8431C02D12B6803B1236038BD00BFE3
S1133B604415002038B50023054D044608462B6053
S1133B7000F0C9F8431C02D12B6803B1236038BD9F
S1133B804415002008B50020FCF7D0FEBDE808402D
S1133B90002000F01FB810B500210220FEF794F9B0
S1133BA0002308211A460220FEF70CFA00230921FB
S1133BB01A460220FEF706FA00230A211A460220BA
S1133BC0FEF700FABDE8104000230B211A4602203C
S1133BD0FEF7F8B938B5054600F012F90446FCF7CB
S1133BE05FFBFFF7D8FFFCF799FB2846FCF7B6FB11
S1133BF02046BDE8384000F009B938B504460D4602
S1133C00FCF79AFCC0B2FF2818D0A36823F008136D
S1133C10A360E36823F00813E360236923F0081327
S1133C202361237D6FF3C3032375C308043314F89E
S1133C30132042F0080204F81320A06104F10800E4
S1133C40FCF7C2FF64206368E26900FB0230FCF702
S1133C50C3FE2B7823B12046FCF732FD00232B70E2
S1133C6038BD08B500F001F9FFF78CFF00F00AF940
S1133C70FCF7E2FAFAE708B5002278210120FEF702
S1133C8035FB002278210220FEF730FB0022782148
S1133C900320FEF72BFB002278210420FEF726FBED
S1133CA0002278210520FEF721FB0022782106203E
S1133CB0FEF71CFBBDE80840002278210720FEF730
S1133CC015BB704708B5FDF76DF9BDE80840FDF771
S1133CD003B800F006B870477047704770477047E4
S1133CE070470F207047FEE74FF4004070474FF4D1
S1133CF07A707047FEE74FF0FF307047FEE7002010
S1133D00704701207047012070474FF0FF30704723
S1133D10002070470020704700207047436803B1BB
S1133D20184722207047436903B11847FF207047A2
S1133D3038B50D680C462B78022B0CD0697928799C
S1133D40FDF7BCF8B0FA80F0400928702046BDE8C1
S1133D503840FCF759BA38BD03681878704710B575
S1133D6004682378022B15D061792079FDF7A6F831
S1133D70A279012A15D1003818BF01204FF6E0714D
S1133D80638840EA430363F03F039BB28B4202D152
S1133D902270638010BD4FF6DF729342F9D1002286
S1133DA0F6E7002AF6D1B0FA80F040092070F1E776
S1133DB003681A78022A03D100225A80FDF79EB8BC
S1133DC0704713B504682378022B10D0A379022B13
S1133DD00BD100216079FDF7FDF800236279207989
S1133DE01146CDE90033FEF789F80223237002B0AF
S1133DF010BDEFF3108072B6704700B962B6704719
S1133E00EFF31180602383F31188704780F31188E6
S1133E10704770B5054614460E46FFF7EAFF2B6857
S1133E205C4034405C402C60BDE87040FFF7E5BF67
S1133E3038B500240546214605EB44100134FEF74D
S1133E40A3FB102CF7D138BD13B54FF440730024F5
S1133E5001A8ADF804308DF80640FDF749FE322084
S1133E60FDF77EFE204602B010BD08B5FCF700FF4A
S1133E70FFF728FFFFF72DFFFFF72DFFBDE80840F0
S1133E80FFF72ABF08B5FFF728FFFFF727FFFFF763
S1133E9026FFBDE80840FFF723BF0028B8BF404213
S1133EA070472DE9F8430746884614460026D4E9AE
S1133EB00195B9F1010905D52468002CF7D13046E4
S1133EC0BDE8F883AB89012B07D9B5F90E3001336E
S1133ED003D029463846C04706436835E9E710B59C
S1133EE00C46B1F90E10FFF7F9F90028ABBF636D6A
S1133EF0A3891B1823F48053ACBF6365A38110BD51
S1133F002DE9F0411F468B890546DB050C46164614
S1133F1005D502230022B1F90E10FFF7CDF9A389CC
S1133F20324623F48053A38128463B46B4F90E104D
S1133F30BDE8F041FFF7E4B910B50C46B1F90E1035
S1133F40FFF7BAF9431CA38915BF606523F48053B6
S1133F5043F48053A38118BFA38110BDB1F90E109F
S1133F60FFF79AB903460244934200D1704703F81D
S1133F70011BF9E7704770477047034613F8012B9C
S1133F80002AFBD1181A01387047B1F90C20F8B592
S1133F90170705460C4656D44B68002B02DC0B6C05
S1133FA0002B3DDDE66A002E3AD0002312F4805245
S1133FB02F68216A2B6025D0626DA389580705D527
S1133FC06368D21A636B0BB1236CD21A216A002383
S1133FD02846E66AB047411C24D000236360236965
S1133FE02360A389DA0400D56065616B2F60B9B1E1
S1133FF004F14403994202D02846FFF7D5F900237F
S113400063630DE001232846B047461C0246D4D121
S11340102B68002BD1D01D2B01D0162B2AD12F6059
S113402000202EE02A68B4F90C3042B11D2A01D0D8
S1134030162A21D10023636023692360D5E76260D7
S113404022692260CEE70F69002FE9D0930718BFD9
S113405000230E6808BF4B69F61B0F608B60002EAF
S1134060DEDD33463A462846216AD4F828C0E047C4
S1134070002807DCB4F90C304FF0FF3043F0400364
S1134080A381F8BD0744361AE9E738B50B6905463C
S11340900C4613B90025284638BD18B1036A0BB97C
S11340A0FFF7E2F8B4F90C30002BF3D0626ED007BE
S11340B004D4990502D4A06DFFF75DFF284621467C
S11340C0FFF763FF636E0546DA07E4D4A3899B0513
S11340D0E1D4A06DFFF750FFDDE7062008B5FFF738
S11340E015FD0120FFF70AFE936810B4013B002B75
S11340F0936007DA9469A34201DB0A2902D110BC58
S113410000F08BB81368581C10601970084610BC76
S11341107047F8B506460F461446D518AC4201D18F
S1134120002007E03A46304614F8011BFFF7DCFF95
S1134130431CF3D1F8BD2DE9F047164698468A682A
S11341400B6907469342B8BF1346336091F8432086
S11341500C46DDF820900AB10133336023689906D8
S113416042BF336802333360256815F0060506D173
S113417004F1190AE36832689B1AAB422BDC94F809
S113418043302268003B18BF0123920630D44146D5
S1134190384604F14302C847013023D0236822691A
S11341A003F00603042B14BF002533684FF0000608
S11341B008BFE56804F11A0408BFED1A54F8123C6C
S11341C008BF25EAE5759342C4BF9B1AED18B542B2
S11341D01AD1002008E00123524641463846C84718
S11341E0013003D14FF0FF30BDE8F0870135C1E75E
S11341F03020E11881F843005A1C94F845102244F9
S1134200023382F84310C2E701232246414638466E
S1134210C8470130E6D00136D9E7F8B50E46144652
S1134220054618B1036A0BB9FFF71EF8A369A3602A
S1134230A3891A0701D5236943B921462846FFF704
S11342400FFC18B14FF0FF373846F8BD23682269D8
S1134250F6B2981A63693746834205DC214628463C
S1134260FFF713FF0028EDD1A368013BA360236887
S11342705A1C22601E706269431C9A4204D0A389AE
S1134280DB07E1D50A2EDFD121462846FFF7FDFEE4
S11342900028D9D0D6E71F2938B505460C4604D9DD
S11342A0162303604FF0FF3038BDC26B12B152F8D1
S11342B021304BB9284600F016F82246014628461C
S11342C0BDE83840FFF72ABC012B0AD0591C03D1A2
S11342D0162303600120E7E70021204642F824105A
S11342E098470020E0E7FFF70CBD034610B5C9B2BC
S11342F002449342184601D1002003E004780133BC
S11343008C42F6D110BD70B50C46B1F90E101546AD
S113431000291E4696B00CDAA389002113F0800F01
S113432014BF40234FF48063002031602B6016B02B
S113433070BD6A46FFF704FC0028EDDB019901F427
S11343407041A1F50053594259414FF48063EBE7A2
S11343508B89F7B59D0706460C4607D504F147033C
S1134360236023610123636103B0F0BD6A4601AB9E
S1134370FFF7C9FF009F054639463046FFF786F828
S113438048B9B4F90C309A05EED423F0030343F092
S11343900203A381E2E7A389C4E9040743F080038D
S11343A0A381019B20605BB13046B4F90E10FFF786
S11343B0D9FB28B1A38923F0030343F00103A381AC
S11343C0A3891D43A581CFE7000000000000000081
S11343D000000000000000000000000000000000D9
S11343E0F8B500BFF8BC08BC9E467047F8B500BFDE
S11343F0F8BC08BC9E4670470000000000000000A6
S113440000000000000000000000000000000000A8
S11344100000000000000000000000000000000098
S113442073636F726500000000000000000000006C
S11344300000000000000000000000000000000078
S11344400000000000000000000000000000000068
S11344500000000000000000000000000000000058
S11344600000000000000000000000000000000048
S11344700000000000000000000000000000000038
S11344800000000000000000000000000000000028
S11344900000000000000000000000000000000018
S11344A00000000000000000000000000000000008
S11344B000000000000000000000000000000000F8
S11344C000000000000000000000000000000000E8
S11344D000000000000000000000000000000000D8
S11344E000000000000000000000000000000000C8
S11344F000000000000000000000000000000000B8
S113450000000000000000000000000000000000A7
S11345100000000000000000000000000000000097
S11345200000000000000000010100000000000085
S113453000000000010000000F0000003700000030
S11345400020000000000000010100000000000045
S113455000000000010000000F0000003700000010
S11345600020000000000000010100000000000025
S113457000000000010000000F00000037000000F0
S11345800020000000000000010100000000000005
S113459000000000010000000F00000037000000D0
S11345A000200000000000000000000000000000E7
S11345B000000000000000000000000000000000F7
S11345C000000000000000000000000000000000E7
S11345D000000000000000000000000000000000D7
S11345E000000000000000000000000000000000C7
S11345F000000000000000000000000000000000B7
S113460000000000000000000000000000000000A6
S11346100000000000000000000000000000000096
S11346200000000000000000000000000000000086
S11346300000000000000000000000000000000076
S11346400000000000000000000000000000000066
S11346500000000000000000000000000000000056
S11346600000000000000000000000000000000046
S11346700000000000000000000000000000000036
S11346800000000000000000000000000000000026
S11346900000000000000000000000000000000016
S11346A00000000000000000000000000000000006
S11346B000000000000000000000000000000000F6
S11346C000000000000000000000000000000000E6
S11346D000000000000000000000000000000000D6
S11346E000000000000000000000000000000000C6
S11346F000000000000000000000000000000000B6
S113470000000000000000000000000000000000A5
S11347100000000000000000000000000000000095
S11347200000000000000000010101000000000082
S1134730000000000100000001000000370000003C
S113474000200E0000000000010101000000000034
S1134750000000000100000001000000370000001C
S113476000200E0000000000010101000000000014
S113477000000000010000000100000037000000FC
S113478000200E00000000000101010000000000F4
S113479000000000010000000100000037000000DC
S11347A000200E00000000000000000000000000D7
S11347B000000000000000000000000000000000F5
S11347C000000000000000000000000000000000E5
S11347D000000000000000000000000000000000D5
S11347E000000000000000000000000000000000C5
S11347F000000000000000000000000000000000B5
S113480000000000000000000000000000000000A4
S11348100000000000000000000000000000000094
S11348200000000000000000000000000000000183
S11348300000000000000000000000000000000074
S1134840000000000000000000000400020200005C
S11348500000000000000000000000000001000053
S11348600000010001020300000000000700000036
S1134870070700003D0000000000000000000000E9
S1134880000000000101010100000000FF00000021
S1134890FF000000FF000000FF000000FF00000018
S11348A0FF00000000000000090000000A000000F2
S11348B00B0000000C00000045415359004D4544D5
S11348C049554D0048415244004C766C312D33001B
S11348D0000000000000F03F000000000000E83F7E
S11348E0000000000000E03F4F7672666C6F7700B6
S11348F00C20270C1C0C0C1E2722230C0C0C1D0155
S11349000003020003040005000007050607000079
S113491001000000030040000C0000000000000043
S1134920000000003F0006005B004F0066006D00C1
S11349307D0007007F006F0077007C0039005E0077
S113494079007100400000000011800200000000A6
S113495002060000200039000F000000401500206E
S11349604004001000223F0006005B044F0466046C
S11349706D047D0407007F046F0400000000000A3A
S1134980000080200000FFFF7704790A3900B0207E
S1134990790071007D04760430000E00700A38003E
S11349A0B602B6083F0073043F08730C6D0401118E
S11349B03E0030223628802A6E04092239008008FD
S11349C00F0001000800000158107C0458005E0428
S11349D0582071040C0C740404000E00700C380090
S11349E0541454045C04730467045004080C7800E1
S11349F01C0010201428802A0C0848200000010103
S1134A000507070304020302040605060D0E0E0E35
S1134A100D0D0D0D0E0E0E0E0D0D010105070703F4
S1134A2004020302040605060F1010100F0F0F0FE7
S1134A30101010100F0F01010507070304020302F1
S1134A40040605061112121211111111121212127A
S1134A5011110101050707030402030204060506F8
S1134A60131C1C1C131313131C1C1C1C13130001F8
S1134A700507060203010302040604051D1E1E1E8B
S1134A801D1D1D1D1E1E1E1E1D1D000105070602E7
S1134A9003010302040604051F2020201F1F1F1FFB
S1134AA0202020201F1F0101050707030402030221
S1134AB0040605062122222221212121222222224A
S1134AC0212107050201030604232323232323238F
S1134AD007050201030604242424242424240705AE
S1134AE002010306042525252525252507050201A0
S1134AF00306042626262626262600010702062764
S1134B0027272727000000000000000013121110BF
S1134B100F0E0D0C000000002125242601010304C2
S1134B20040203020D0E0D0D0E0D0E0E0101030401
S1134B30040203020F100F0F100F101001010304E1
S1134B4004020302111211111211121201010304C1
S1134B5004020302131C13131C131C1C0001020384
S1134B60040103021D1E1D1D1E1D1E1E0001020345
S1134B70040103021F201F1F201F20200101030422
S1134B8004020302212221212221222205070704F3
S1134B90040605060E0E0D0D0E0E0D0D0507070479
S1134BA00406050610100F0F10100F0F0507070459
S1134BB00406050612121111121211110507070439
S1134BC0040605061C1C13131C1C131305070603FB
S1134BD0040604051E1E1D1D1E1E1D1D05070603BD
S1134BE00406040520201F1F20201F1F050707049B
S1134BF0040605062222212122222121CC10002094
S1134C00FD0E00005F3D0000B13D0000C33D00000B
S1134C10593D0000633A5C75736572735C646F722E
S1134C20616B5C73696D706C6963697479737475B5
S1134C3064696F5C73646B735C6765636B6F5F73EC
S1134C40646B5C706C6174666F726D5C656D6C69CD
S1134C50625C696E635C656D5F6770696F2E680086
S1134C60433A2F55736572732F646F72616B2F53C0
S1134C70696D706C696369747953747564696F2FB5
S1134C8053444B732F6765636B6F5F73646B2F7053
S1134C906C6174666F726D2F6472697665722F62CF
S1134CA07574746F6E2F7372632F736C5F73696D99
S1134CB0706C655F627574746F6E2E630000FFFF25
S1134CC0FFFFFFFFFFFFFFFFFF1F433A2F557365F1
S1134CD072732F646F72616B2F53696D706C6963AB
S1134CE069747953747564696F2F53444B732F67D8
S1134CF065636B6F5F73646B2F706C6174666F7246
S1134D006D2F656D6C69622F7372632F656D5F61C2
S1134D10636D702E6300633A5C75736572735C64D3
S1134D206F72616B5C73696D706C696369747973BC
S1134D30747564696F5C73646B735C6765636B6FD4
S1134D405F73646B5C706C6174666F726D5C656DCF
S1134D506C69625C696E635C656D5F6275732E6815
S1134D6000633A5C75736572735C646F72616B5C4B
S1134D7073696D706C696369747973747564696F50
S1134D805C73646B735C6765636B6F5F73646B5CAC
S1134D90706C6174666F726D5C656D6C69625C6980
S1134DA06E635C656D5F636D752E6800433A2F55C5
S1134DB0736572732F646F72616B2F53696D706CBE
S1134DC0696369747953747564696F2F53444B73C1
S1134DD02F6765636B6F5F73646B2F706C617466B0
S1134DE06F726D2F656D6C69622F7372632F656DC1
S1134DF05F636D752E6300000002800008000200EE
S1134E002000000140000400010010000907030114
S1134E1005433A2F55736572732F646F72616B2F5C
S1134E2053696D706C696369747953747564696FDF
S1134E302F53444B732F6765636B6F5F73646B2FE2
S1134E40706C6174666F726D2F656D6C69622F731F
S1134E5072632F656D5F636F72652E6300433A2F33
S1134E6055736572732F646F72616B2F53696D7024
S1134E706C696369747953747564696F2F53444B17
S1134E80732F6765636B6F5F73646B2F706C6174F2
S1134E90666F726D2F656D6C69622F7372632F6517
S1134EA06D5F6770696F2E630000FFFFFFFFFFFFF8
S1134EB0FFFFFFFFFF1F433A2F55736572732F6483
S1134EC06F72616B2F53696D706C69636974795388
S1134ED0747564696F2F53444B732F6765636B6FED
S1134EE05F73646B2F706C6174666F726D2F656D88
S1134EF06C69622F7372632F656D5F6C63642E63DC
S1134F0000433A2F55736572732F646F72616B2F70
S1134F1053696D706C696369747953747564696FEE
S1134F202F53444B732F6765636B6F5F73646B2FF1
S1134F30706C6174666F726D2F656D6C69622F732E
S1134F4072632F656D5F6C6573656E73652E6300A8
S1134F50433A2F55736572732F646F72616B2F53CD
S1134F60696D706C696369747953747564696F2FC2
S1134F7053444B732F6765636B6F5F73646B2F7060
S1134F806C6174666F726D2F656D6C69622F7372DC
S1134F90632F656D5F73797374656D2E6300000014
S1134FA000010103030000433A2F55736572732F08
S1134FB0646F72616B2F53696D706C696369747986
S1134FC053747564696F2F53444B732F6765636B18
S1134FD06F5F73646B2F706C6174666F726D2F7387
S1134FE06572766963652F7564656C61792F737278
S1134FF0632F736C5F7564656C61792E6300524531
S1135000454E54206D616C6C6F63207375636365EA
S113501065646564002F646174612F6A656E6B69F1
S11350206E732F776F726B73706163652F474E5584
S11350302D746F6F6C636861696E2F61726D2D31B1
S1135040322F7372632F6E65776C69622D63796793
S113505077696E2F6E65776C69622F6C6962632F56
S11350607374646C69622F72616E642E63002C2009
S113507066756E6374696F6E3A200061737365724E
S113508074696F6E2022257322206661696C6564E1
S11350903A2066696C6520222573222C206C696E87
S11350A065202564257325730A00232D302B2000E9
S11350B0686C4C00656667454647003031323334CE
S11350C0353637383941424344454600303132336E
S11350D03435363738396162636465660000000030
S10B50E094B0FF7F0100000001
S10F50E8F4500000001000206A000000DA
S11350F4FF000000000000000000000000000000A9
S11351040000000000000000000000000000000097
S11351140100000001000000010000000100000083
S11351240100000001000000010000000100000073
S11351340100000001000000010000000100000063
S11351440100000001000000010000000100000053
S1135154809FD50000800000006CDC0260150020F4
S11351640000000003000000081400208010002048
S1135174000000000814002070140020D81400203B
S11351840000000000000000000000000000000017
S11351940000000000000000000000000000000007
S11351A400000000000000000000000000000000F7
S11351B400000000000000000000000000000000E7
S11351C4010A0200FFFFFFFF0101010507070304B1
S11351D4020302040605060D0E0E0E0D0D0D0D0E32
S11351E40E0E0E0D0D01010507070304020302044C
S11351F40605060F1010100F0F0F0F101010100FCC
S11352040F0101050707030402030204060506113E
S1135214121212111111111212121211110101059B
S11352240707030402030204060506131C1C1C13CB
S11352341313131C1C1C1C1313000105070602037F
S1135244010302040604051D1E1E1E1D1D1D1D1E34
S11352541E1E1E1D1D000105070602030103020490
S11352640604051F2020201F1F1F1F202020201F8D
S11352741F010105070703040203020406050621AE
S11352842222222121212122222222212100000062
S10B5294510100002901000092
S9030D09E6
