:1000000000100020B10E00005153000051530000B9
:100010005153000051530000515300005153000050
:100020005153000051530000515300005153000040
:10003000515300005153000051530000F1010000E2
:10004000052700006118000051530000750E0000E4
:10005000255300005153000051530000515300003C
:100060005153000051530000515300008518000007
:1000700051530000515300005153000051530000F0
:10008000515300007105000051530000515300000E
:100090000902000051530000515300005153000069
:1000A00051530000515300005153000051530000C0
:1000B00051530000515300005153000051530000B0
:1000C00051530000515300005153000051530000A0
:1000D0005153000051530000515300000000000034
:1000E000013800D0FCE770470348044B834202D03C
:1000F000034B03B118477047A8110020A811002036
:10010000000000000548064B1B1AD90F01EBA301A4
:10011000491002D0034B03B118477047A8110020C3
:10012000A81100200000000010B5064C237843B948
:10013000FFF7DAFF044B13B10448AFF3008001234B
:10014000237010BD90190020000000009C69000081
:1001500008B5054B1BB105490548AFF30080BDE864
:100160000840FFF7CFBF00BF0000000000140020D0
:100170009C690000A3F5803A704700BF174B002B25
:1001800008BF134B9D46FFF7F5FF00218B460F4636
:100190001348144A121A05F084FA0E4B002B00D0B3
:1001A00098470D4B002B00D09847002000210400F9
:1001B0000D000D48002802D00C48AFF3008004F079
:1001C000C7FB2000290005F064F804F047FA00BFDF
:1001D00000000800000000000000000000100020E7
:1001E000A8110020B8190020000000000000000045
:1001F000034B5B7813B10122024B1A70704700BFAA
:100200000010002093190020044B054ADB69DBB283
:1002100013700122034B1A70704700BF00E00040CA
:100220009219002091190020F8B500250E461446B9
:10023000054FA54201DB2046F8BD715D384605F04B
:1002400067F90135F5E700BF00E0004070B586B002
:1002500001211E4801F04AFE01211D4801F046FE21
:1002600000244FF4E1334FF4A0620526CDE90143A9
:100270004FF48053174D69462846CDE90323ADF866
:1002800014408DF816408DF8006003F0C7FA042280
:1002900040F20313214610466B65012302F012FD64
:1002A000012223461146042002F00CFD0123042202
:1002B0000721304602F006FDEB6C43F00403EB64CB
:1002C0004FF48012044B1A6006B070BD00D20400D7
:1002D0000032040000E0004000E100E008B5094BF6
:1002E00083420DD105F052F8012809D0064B5A7807
:1002F000012A05D093F9002001321CBF01225A7057
:1003000008BD00BFC46300000010002010B5154CEC
:10031000637813B9204600F0F3F94FF0E0239869B1
:1003200004F0AEF910490F4804F07FFFE369192B80
:1003300016D104F0B8FF0021082000F01FFCFF23B5
:100340000A48238000F02EFC094803F057FE60683D
:1003500000F066FC064803F051FE00236360E36191
:1003600010BD00BF0010002093190020805B00002A
:1003700040420F0010B500F033FE0521112002F0BD
:100380006FF80321124802F06BF80121114802F0C6
:1003900067F80121104801F0A9FD01210F4801F083
:1003A000A5FD01210E4801F0A1FD0E4C01210E48D2
:1003B00001F09CFD01210D4801F098FD204601212E
:1003C00001F094FD2046BDE81040012101F072BC0F
:1003D00002001E00030020004081040000D204003F
:1003E0000092040080062E0000A20400D0433E00CC
:1003F00070B500230B4E1A461946304601F098FAA4
:100400000023094C094D194620461A4601F090FA7E
:100410002946304601F048FA29462046BDE870409A
:1004200001F042BA0010004000140040C85F000014
:1004300070B5474E054633781BB10121454803F09E
:100440004DF8454C002D68D002F0EEFF256A15F0FE
:100450001005FBD102F0F4FF0421284602F03AFE19
:10046000294628463D4D02F095FE3D4805F044F8EA
:10047000372108202A8802F0DBFE372109206A880C
:1004800002F0D6FE37210A20AA8802F0D1FE3721D9
:100490000B20EA8802F0CCFEE36C23F48033E364A3
:1004A0004FF400322F4B1A6002F0A6FF3378002B76
:1004B0004DD00023284A3370136A9B07FCD50022D5
:1004C00013462948244C254D10F8011B59B1032B24
:1004D0009FBF02F1A00154F8211001F1FF3125F86E
:1004E00013100133DBB20132102AEDD11B4C37213E
:1004F0002288082002F09CFE62883721092002F041
:1005000097FEA28837210A2002F092FEE288372166
:10051000BDE870400B2002F08BBE02F085FF256A1B
:1005200015F01005FBD14FF48033636402F088FFAF
:100530004021284602F0CEFD0321284602F02AFE83
:100540000A4804F0D9FFE36C43F48033A7E770BD99
:10055000D8100020885F000000C0084088190020E3
:10056000885D000000E100E0DC5F0000885B0000C7
:1005700070B51F49CB6C0A6C1340DB030FD54FF4E9
:10058000803300224B641B4B1B4D1C4E1C4C1A70BD
:100590001A780F2A13D91B4B1B6803B19847144BC9
:1005A000DA6C196C0A4012F4706F1FD04FF470624D
:1005B0005A64154B1B68CBB1BDE8704018471A78D8
:1005C000AA5C72B1886A1A78D2B246F822001A7808
:1005D000D2B254F8222082423EBF1A78D2B244F8F6
:1005E00022001A780132D2B21A70D1E770BD00BF72
:1005F00000C0084094190020DC5F00002014002097
:10060000201000201C14002018140020F0B58DB01C
:10061000264C06AD0FCC0FC594E80300083485E8DE
:1006200003000FCC01AD0FC5EC264FF0FF300122C7
:1006300023681F4FDFF87CC02B6006AC01AD55F876
:10064000041F013957F821305CF821101B02B3FB5D
:10065000F1F3B34238BF104602F1010238BF1E4623
:10066000052A44F8043FEAD1431C1DD00CA90CAA6A
:10067000431E02EB800201EB800050F8140C52F88C
:10068000182CC0F58070C2F58072C000B0FBF2F08B
:1006900000EB031001EB830353F8183CC3F58073A0
:1006A000DB00B3FBF2F3C01A0DB0F0BDEC5F00004D
:1006B000201400202010002090F90030012B05D0DC
:1006C000022B05D033B9044800F06CBA0348FBE7AD
:1006D0000348F9E7704700BF186000001D60000084
:1006E000246000000278022A05D8044B03EBC20301
:1006F000D3E90001704700200021704750600000DE
:10070000F8B50446214D637843B300F069FC03F06B
:100710000BFF064620460F46FFF7E4FF02460B4656
:100720003046394603F094FC03F078FF0138B0F10D
:10073000807F0AD24FF0E023E021154A586182F809
:10074000231000229A6107221A61002000F0B4F9F8
:10075000BDE8F8400121082000F010BAFFF756FF6D
:100760002378C2B21840FF2803D1284600F01AFAB5
:10077000C9E7FF2A05D0531E48BF02F10E031B1123
:1007800023702046FFF798FFBDE700BF29600000F7
:1007900000ED00E0F8B5002204468369002BB8BFE5
:1007A0000733DB1093421CBF111D14F8110002F136
:1007B00001021CBF6FF3C30004F81100072AF1D136
:1007C0006168364804F06CF800213548354D0B1D42
:1007D00014F813705E0017F0010F30D034F81320B6
:1007E0002A4042F4807224F8132001310729EED107
:1007F00003F074FF434203F0070300F0070058BF03
:100800005842043004EB4001497814F81020C1F339
:100810000005C2F300032B4343EA1113D90737D570
:1008200003F05CFF434203F0070300F0070058BFEA
:100830005842043014F81030DB07F1D4F8BD2644D8
:10084000727812F0010F05D022F0110242F010026E
:100850007270CAE7C7F3C0063F07C2F300120BD499
:1008600052B134F81320024042F0080224F8132059
:10087000E3690133E361B8E73242B6D004EB4303E6
:100880005A786FF304125A70636801336360EFE7BC
:1008900042F0010204F81020D0E700BF30600000F1
:1008A000F7EFFFFFFEFEFFFF024A536E0342FCD14B
:1008B000704700BF00A0084010B50022284C104629
:1008C000214602F037FB21460022012002F032FBD4
:1008D00021460022022002F02DFB214600220320A7
:1008E00002F028FB21460022042002F023FB2146CF
:1008F0000022052002F01EFB21460022062002F005
:1009000019FB21460022072002F014FB0022FF21E0
:10091000104602F06BFB0022FF21012002F066FB73
:100920000022FF21022002F061FB0022FF210320B0
:1009300002F05CFB0022FF21042002F057FB0022A2
:10094000FF21052002F052FB0022FF21062002F0C9
:100950004DFBBDE810400022FF21072002F046BBFE
:1009600000F00FF010B5274C00220720264902F0B6
:10097000E1FA21460022062002F0DCFA214600229C
:10098000052002F0D7FA21460022042002F0D2FA14
:1009900021460022032002F0CDFA21460022022047
:1009A00002F0C8FA21460022012002F0C3FA002218
:1009B0004FF02041104602F0BDFA07210022084600
:1009C00002F014FB00220721062002F00FFB002298
:1009D0000721052002F00AFB00220721042002F073
:1009E00005FB00220721032002F000FB0022072163
:1009F000022002F0FBFABDE810400022072101208E
:100A000002F0F4BA00E00FF000E00F5010B5012141
:100A10000446224801F06AFA0321214801F020FD32
:100A20004021204801F046F9012001F061FC01213C
:100A30001D4801F05BFA1D4B1D489A6A00229A621C
:100A400002F09EF90121082002F0D0F901211020C6
:100A500002F0CCF90121802002F0C8F901214FF405
:100A6000807002F0C3F901214FF4007002F0BEF96A
:100A700064B14FF4402002F00DFB4FF4803002F0DF
:100A8000A7F90C4AD36F43F00803D367FFF714FFAD
:100A9000BDE810404FF0FF30FFF706BFD0433E00E7
:100AA00002001E0080002A0000362C0000A0084032
:100AB0009060000000800C402DE9F84F42F20E7368
:100AC000984204464BDC294B984204DB002803DBA8
:100AD0004FF0000A06E01C46204604F07DFD4FF072
:100AE000010A044601254FF0FF30FFF7DDFE204BE1
:100AF00000271D6604F0D7FB4FF00A09BAF1000F7A
:100B000001D0032F30D094FBF5F393FBF9F209FBEE
:100B100012339BB20E264FF00008164A32F813B07B
:100B2000154B06FB07364BFA08F2D30706D5012210
:100B300096F8CB1096F8C40002F064F908F10108A9
:100B4000B8F1070F06F10106EDD10137042F09FBBB
:100B500005F5D3D10022064B1A66BDE8F88F4FF099
:100B6000000A42F20F74BDE71023D3E719FCFFFF20
:100B700000A00840A46000007E6100000E280A4624
:100B800003468BBF00210549084608569CBF04490F
:100B9000C95602B1012202F035B900BF7F600000E2
:100BA000706000002DE9F84F814604F093FD804607
:100BB0004FF0FF30FFF778FE0122164B00241A6633
:100BC000FFF7D0FE144FDFF854A0A045D8BF202374
:100BD0003E464FF00005C8BF19F80430203B3AF8F4
:100BE00013B04BFA05F3DB0704D50122B17B307853
:100BF00002F008F901350E2D06F10106F1D101349C
:100C0000072C07F11C07E0D10022024B1A66BDE851
:100C1000F88F00BF00A008407E610000C6600000A1
:100C200037B5044608220021684604F03AFD002149
:100C30000520FFF7A3FF194B194A2344934204D917
:100C40001848FFF7AFFF03B030BD002CB4BF01223E
:100C500000224FF001004FF006014FF00A05B8BF27
:100C60006442A8B1B4FBF5F305FB13433033DBB2A8
:100C7000B4FBF5F4201E18BF01200DF80130013936
:100C8000EFD21AB101210520FFF778FF6846D8E7B7
:100C9000002A14BF2D2320230246E9E77F969800FF
:100CA000FE2C3101686000002DE9F0410746124B2F
:100CB0005C6E002CFCD10122DFF840801A664646AB
:100CC0000025334637F8142030782A4112F001020B
:100CD00018BF0122997B013502F094F80E2D06F120
:100CE0000106EED10134072C08F11C08E7D10022DF
:100CF000014B1A66BDE8F08100A00840D910002021
:100D000010B501F07FFB01210F4801F0EFF801223F
:100D10000020114601F04AFB01220C4C1146A36A47
:100D2000002023F4803323F0030343F00203A36283
:100D300001F03CFBA36A002023F4801323F00C0392
:100D400043F00803A36210BDD0433E0000800C4076
:100D500013B50122164B1A6402F078FC044601A870
:100D600002F04CFC0F2C12D99DF80430022B0ED946
:100D70009DF80520022A01D1042B08D00D4AD2F893
:100D8000C03023F0500343F01003C2F8C03002F02B
:100D9000B5FD00F087F804F0C0FB02F099FDFFF705
:100DA000AFFF02F085FD02B0BDE8104000F06EB864
:100DB00000000C4000800C4030B595B01D4D08ACD3
:100DC0000FCD0FC495E8030084E8030000211A4A00
:100DD0001A4B0DF14200CDE90323194B0E22CDE948
:100DE00005314FF48073079304F05BFC4FF440210E
:100DF000144B1548CDE90E1303238DF8403004231E
:100E00008DF84130114B08AA11932023129301232E
:100E10008DF84D300E4B0EA9009303AB03F054F840
:100E2000044618B186210B4804F099FA204615B003
:100E300030BD00BFAC63000000E0004000020400D1
:100E4000040004011CE00040A414002095190020B7
:100E5000601400207C63000008B5FFF7ADFF28B1E7
:100E6000BDE808409A21024804F079BA08BD00BFE5
:100E70007C630000014803F089B800BFA41400207F
:100E8000014804F07EBA00BFC463000008B5012128
:100E9000034801F02BF8BDE8084004F02ABA00BF6F
:100EA00000D204000121014801F020B800D2040062
:100EB00008B500F0B9F8124B12498B4212D300204A
:100EC000114B12498B4218D3FFF758F9186850F8A4
:100ED0002240586840F82240013298688242F5D397
:100EE0000C33EAE70022F8E71C6844F822000132DC
:100EF0005C68A242F8D30833E4E70022F8E700BFB9
:100F0000A4690000B0690000B0690000B069000089
:100F100000487047006CDC02254AD36A03F4705322
:100F2000B3F5805F3AD0B3F5005F04D0B3F5006F3E
:100F30000BD1204B00E0204B1B681D4A1068C0F30A
:100F400082300130B3FBF0F07047D36803F4E06304
:100F5000B3F5407F25D008D8B3F5807F0ED0B3F528
:100F6000007F20D0A3B10023E7E7B3F5806F1CD04A
:100F7000B3F5A06F114B18BF0023DEE7104B114AE9
:100F8000D3F8FC10104BB1F1985F28BF1346D4E79B
:100F90000B4B0E4AD3F8FC100D4BF4E74FF4004313
:100FA000CBE70C4BC9E70C4BC7E70C4BC5E700BFC1
:100FB00000800C406810002064100020003FAB014E
:100FC0000081E00F40B56400C0CF6A00804F12007E
:100FD00040420F00809FD500C0D8A700406F40015D
:100FE00008B5FFF799FF044B5B6803F00F03D84087
:100FF000024B186008BD00BF00800C40601000204C
:10100000014B1868704700BF68100020044B18603F
:10101000044BDB6A1B0501D5FFF7E2BF704700BF39
:101020006810002000800C40014A024B9A60704713
:101030000000000000ED00E0014B1868704700BFA1
:10104000641000200346054A0549106803448B429A
:101050008CBF4FF0FF301360704700BF6C10002052
:101060000000022038B5052805460C4605D80A4B75
:1010700033F81030CB40DB0704D440F2D2310748BC
:1010800004F06DF924235D43054B2B4404EBC304AA
:10109000A400206838BD00BF86640000DC63000047
:1010A0001C60100237B5046801210546164800F09F
:1010B0001DFF002301226179207901F003FE61798F
:1010C0002079FFF7CFFFB0FA80F35B092370A37993
:1010D000022B15D100F080FB2A460C49607900F004
:1010E000A5FBFF28054603D18421094804F037F900
:1010F0000123617920792A46CDE9003301F07EFD94
:10110000002003B030BD00BF00D2040097530000A0
:101110002864000008B50121284800F0E7FE0123FB
:1011200004220221052001F0CDFD002001F036FD52
:101130000122234B1146C3F80824042001F036F99C
:10114000204800F0E5FF204B00F5D520D3F8F02033
:1011500000F2FC4042F00102C3F8F020D3F8FC207A
:1011600042F08072C3F8FC20184AA3F55D431A6070
:10117000174B0222B0FBF3F0164B01381861C3F88D
:10118000F0204FF48072C3F804234FF06043124AFA
:101190000020C3F8B02F114AC3F8802ED3F8002ED8
:1011A00042F48072C3F8002EFF2283F82020D3F887
:1011B000002E22F48072C3F8002E08BD00D2040075
:1011C00000200C4206000E0000ED00E0FF0300408E
:1011D000F8590D00000004E055CEACC5090001002F
:1011E000142343430449CA18CB5823B191680131F1
:1011F00091605268184770474C1500202DE9F04F58
:101200008DB08346DDE916591846684B0F461B78AA
:1012100090469DF86460DDF868A09DF86C40002B56
:1012200000F0BF800B2A00F2BE80002D00F0BB80D2
:10123000B9F1000F00F0B780BAF5806F00F3B3800A
:10124000BBF1010F09D01422594B02FB08331B7C60
:101250008BB958480DB0BDE8F08F189B002B00F0FB
:10126000A2801422524B02FB08331A7C002AF0D0D1
:10127000DFF844E105E01C9BDFF840E11A1E18BFCF
:1012800001220C2303FB08F3DFF834C18DF825207D
:101290000CEB03014CF803E00023CDE90A014B609D
:1012A000404609A98DF8243001F0E0FA002F44D11E
:1012B000002E3ED0002C3ED0012C0CBF0123022377
:1012C0008DF81D3003238DF81C308DF81E4000244E
:1012D0000121404607AA8DF81F408DF8204001F0FB
:1012E000FBFA01218B450AF1FF36DFF8C4B001FAA1
:1012F00008F332D1214607AA4046059301F0ECFAE3
:10130000142202FB08F21C9B0BEB02014BF802308B
:101310001D9B2C4AC1E90134059BC1F80CA09360C8
:101320009FB3189B2A462146CDE901930396009668
:1013300033E00323C4E72346C2E756B15CB1012C76
:101340000CBF012302238DF81C3003238DF81D30C0
:10135000BBE70323F7E72346F5E7142202FB08F275
:101360001C980BEB02074BF802001D9AC7F80CA063
:10137000C7E90124134A404693602B462246CDE933
:10138000009601F003FA002064E7189B2A46CDE995
:10139000015339464B4603960096404601F024FA25
:1013A000F1E7094856E7094854E700BFB51900209E
:1013B0004C150020078000F0D1130000E11100005F
:1013C000BC14002000300C40028000F0018000F0CE
:1013D0007FB514234343104D0446EA18EB580E46DC
:1013E000BBB19168013191605268984780F0010368
:1013F000DBB20293142303FB0455EB683146013B37
:101400000193002320461A46009301F0C5FA04B068
:1014100070BD0123EDE700BF4C15002038B5124B1D
:1014200005461B78DBB1E0B104F04EF80F4A00230B
:101430001146147C54B914222B6001255343CA1859
:101440001574CC5004F046F8204638BD01330C2BFF
:1014500002F11402EDD104F03DF80548F5E7054826
:10146000F3E70548F1E700BFB51900204C1500204F
:10147000048000F0028000F0018000F038B504F034
:1014800023F800230546124A147CE4B901330C2BDF
:1014900002F11402F8D101220E4BC3F88020BFF3F1
:1014A0004F8FBFF36F8F0C4B2146DC60A3F5805349
:1014B0000A485C6000F01AFD094B28461C7004F0D5
:1014C00009F8204603E0284604F004F8054838BD32
:1014D0004C15002000E100E000300C400003020049
:1014E000B5190020058000F010B50E4B04461B789E
:1014F0009BB10B2813D803F0E7FF14220A4B02FB21
:1015000004331A7C2AB100241C7403F0E3FF204644
:1015100010BD03F0DFFF0548FAE70548F8E7054886
:10152000F6E700BFB51900204C150020068000F03A
:10153000028000F0018000F013B503F0C5FF114BED
:101540001C7824B103F0C6FF0F4802B010BD012281
:101550001A7003F0BFFF234621460C4A01330C2BBF
:10156000117402F11402F9D18022094B684683F804
:101570000023084B8DF80010019301F089FA002038
:10158000E3E700BFB5190020038000F04C150020F0
:1015900000E100E00012002008B50B4A127862B1A9
:1015A0000B280CD81421094A01FB00231B7C43B1F2
:1015B000002101F0D7F9002008BD0548FCE70548E7
:1015C000FAE70548F8E700BFB51900204C150020E0
:1015D000028000F0018000F0078000F008B50B4A9F
:1015E000127862B10B280CD81421094A01FB0023A0
:1015F0001B7C43B1012101F0B5F9002008BD05486D
:10160000FCE70548FAE70548F8E700BFB5190020F0
:101610004C150020028000F0018000F0078000F0EF
:1016200008B50B4A127862B10B280CD81421094A6C
:1016300001FB00231B7C43B1002101F07BF900205A
:1016400008BD0548FCE70548FAE70548F8E700BF8C
:10165000B51900204C150020028000F0018000F038
:10166000078000F00E4B1B789BB10B2813D891B16B
:1016700014220C4B02FB00331B7C73B10A4B1A681B
:1016800001238340134214BF0123002300200B7069
:10169000704706487047064870470648704700BFC5
:1016A000B51900204C15002000300C40028000F0DD
:1016B000018000F0078000F0F8B5164B04461B7857
:1016C0000D4603B30B2820D8F9B11422124B02FBAC
:1016D00000331B7CDBB103F0F7FE104B03EB04136C
:1016E0009E680F4BC6F309161F6803F0F3FE46B958
:1016F0000123A3403B4214BF0123002300202B7091
:10170000F8BD0023FAE70748FAE70748F8E7074873
:10171000F6E700BFB51900204C150020001200208C
:1017200000300C40028000F0018000F0078000F0E3
:10173000F8B5144B05461B780E46EBB10B281DD8A7
:10174000E1B11422104B02FB00331B7CC3B103F048
:10175000BBFE0E4B03EB05139C680D4BC4F3091441
:101760001F6803F0B7FE1CB90123AB403B4200D118
:10177000013400203460F8BD0648FCE70648FAE76B
:101780000648F8E7B51900204C150020001200208B
:1017900000300C40028000F0018000F0078000F073
:1017A00070B5012504460B4E04B970BD94FAA4F03F
:1017B000B0FA80F005FA00F306EB001224EA030405
:1017C0005368002BF0D0117B11B191689847EBE77B
:1017D0009847E9E73C16002008B50B2000F020FFF1
:1017E00028B14FF40062074BC3F880211A60012032
:1017F00000F016FF20B10222024BC3F880211A60CC
:1018000008BD00BF00E100E038B505460C4603F016
:101810005BFE0022044B03EB05135C601A73BDE80A
:10182000384003F057BE00BF3C16002070B5044698
:1018300015460E4603F048FE084B03EB04135A68A6
:101840004AB9FF2C03D00122C3E901651A7303F0E2
:1018500041FE204670BDFF24F9E700BF3C16002082
:10186000074BD3F81001D3F81421104020F42A506C
:1018700020F02A004004400CC3F81C01FFF790BF81
:1018800000600040074BD3F81001D3F8142110403A
:1018900020F4AA4020F055000004000CC3F81C01FD
:1018A000FFF77EBF0060004038B51F4B04469842EA
:1018B0000D4607D003F58063984203D0A8211B484A
:1018C00003F04DFDEB683F2B03D9D121174803F0FE
:1018D00046FD6B680F2B03D9D221144803F03FFD5E
:1018E0006B7A2A7A1B0143EA02236A68297843EA61
:1018F00002636A78920742EAC17213432360EB7A6B
:10190000AA7A1B0443EA0273EA6843EA022343F01B
:10191000807343F0B003636004F142442B7C04F510
:1019200080146401236038BD001000409264000000
:101930002DE9F041DD001C4B064698420F469046CB
:1019400017D1022F04D94FF4EA71184803F007FDAC
:1019500003F0B3FD0446336820465D4005F00805FA
:101960005D40356048EA072703F0ABFDF761BDE84D
:10197000F0810F4B9842E4D040F2D1110B4803F0B4
:10198000EEFC022F04D94FF4EA71084803F0E7FC9B
:1019900003F093FD0446002EDDD14FF49C71054801
:1019A00003F0DDFCD7E700BF0010004092640000A8
:1019B00000140040DE64000010B5431EB3F5004F74
:1019C000044604D2B4FA84F0C0F11F0010BD40F602
:1019D0009351034803F0C3FC002CF3D12020F3E71C
:1019E0002965000008B5194B5B6903F4E063B3F5A2
:1019F000407F16D00DD8B3F5807F20D0B3F5007F9F
:101A000018D0F3B141F29C61114803F0A8FC002307
:101A10000EE0B3F5C06F16D0B3F5E06FF2D10D4B09
:101A200006E001F013FE0C4B0C4A122888BF134647
:101A3000184608BD01F00AFE094B0A4AF5E70A4BB1
:101A4000F6E70A4BF4E70A4BF2E700BF00800C40D0
:101A500074650000406F400140420F00804F12004B
:101A6000C0CF6A0040B56400C0D8A700809FD500F1
:101A7000003FAB01034B5A6DD20702D41A6D1042DE
:101A8000FCD1704700800C4008B501F0E7FD4A2802
:101A900005D0792803D0482818D1104815E01049FE
:101AA0000E48D1F8E030D1F8E820D1F8EC101B0254
:101AB00003F47C53C1F3031102F0F0020B43134310
:101AC000084AB3F5017F28BF104608BD064841F219
:101AD000186103F044FC0020F7E700BF0048E8016C
:101AE00000FF0FE000366E017465000010B504467B
:101AF000FFF7CAFFA04207D2FFF7C6FFB4EB400FC3
:101B00000ED80122012301E00022134605498B670C
:101B100005494B6823F4807343EA02234B6010BDF0
:101B20000222EFE70000904300800C40144B5A68FB
:101B30006FF0130302F00702134113F0010F114B72
:101B400009D1984217D8104B104A034493422CBF36
:101B50000023012308E098420FD80B4B0B4A0344A3
:101B6000934234BF0323022305494A6822F0070247
:101B700013434B6070470423F6E70523F4E700BFE7
:101B800000000C400048E801FFDB0BFF0024F400DC
:101B900038B541F67133064CE56BE363FFF7B8F9EE
:101BA000ADB2FFF7C3FF0DB10023E36338BD00BF43
:101BB00000000C4038B541F67133054CE56BE3632A
:101BC000ADB2FFF7B3FF0DB10023E36338BD00BF33
:101BD00000000C4008B5C0F30313013B0C2B5AD88E
:101BE000DFE803F00759590D5959141D4759595940
:101BF00017002A4B1868C0F38230013008BD274B0C
:101C00009B6803F00F0301209840F7E7234B5B68C4
:101C1000F7E7224B5B68C3F300230133F3E7204B64
:101C2000984220D00DD81F4B984212D003F5822342
:101C3000984213D041F62F411B4803F090FB01203E
:101C4000DCE71A4B9842F5D1144B9B6E03F003036B
:101C5000D9E7124B9B6EC3F30313D4E70F4B9B6E74
:101C6000C3F30323CFE70D4B9B6EC3F30133043360
:101C7000C9E70F4B984206D003F50433984205D0CC
:101C800041F64841D8E7054B1B6FDFE7034B1B6F5D
:101C9000C3F30113B7E741F64F41CDE700800C4095
:101CA00080002A00801612007465000080062E0055
:101CB00090071A0010B5C0F30313013B0C460C2B20
:101CC00000F20581DFE813F00D0003010301250098
:101CD0000301030144006700D10003010301030174
:101CE00038004C1E072C04D941F67C41794803F09A
:101CF00036FBFFF74DFF784A136823F4E03343EADD
:101D000084341460FFF76CF9BDE810400021FFF740
:101D100051BF4B1EB3F5007F04D341F68F416D4890
:101D200003F01DFB2046FFF747FE6B4A936823F044
:101D30000F030343936010BD0846FFF73DFE664A5C
:101D40000138536823F4807343EA00235360F2E7B9
:101D50004B1EB3F5007F04D341F6A5415D4803F067
:101D6000FEFAFFF715FFFFF73BF9B0FBF4F0FFF7C2
:101D7000BDFE2046FFF720FE574A536823F00F03AD
:101D800003435360FFF72CF90021FFF713FFBDE871
:101D90001040FFF7ABBE514B98424FD00DD8504B7F
:101DA000984220D003F58223984232D041F6FE417A
:101DB000BDE81040474803F0D2BA4A4B9842F5D1EB
:101DC000082904D941F6F041424803F0C8FA04203A
:101DD000FFF750FE2046FFF7EFFD3F4A936E23F0DA
:101DE0000303034313E0B1F5004F04D941F6C341A7
:101DF000384803F0B4FA0420FFF73CFE2046FFF712
:101E0000DBFD354A936E23F0F00343EA001393663B
:101E100091E7B1F5004F04D941F6D1412D4803F0C7
:101E20009EFA0420FFF726FE2046FFF7C5FD2A4A4A
:101E3000936E23F4706343EA0023E8E7A1F11003F3
:101E4000702B04D94FF4E751224803F088FA04209C
:101E5000FFF710FE2046FFF7AFFD1F4A0438936ED0
:101E600023F4405343EA0033D1E71F4B984206D096
:101E700003F50433984216D041F6245198E7082917
:101E800004D941F60751134803F069FA4020FFF7DF
:101E9000F1FD2046FFF790FD0F4A136F23F0030377
:101EA0000343136747E7082904D941F61651094847
:101EB00003F055FA4020FFF7DDFD2046FFF77CFDDB
:101EC000054A136F23F0300343EA0013E9E741F6B4
:101ED0002A516DE77465000000800C4080002A00E4
:101EE0008016120080062E0090071A0070B5C0F30D
:101EF0000323013B04460E46092B16D8DFE803F006
:101F0000302C051515272015151CFFF769F8FFF76C
:101F1000EDFD154DC4F3043405F1424505F580157A
:101F200004EBC504A400266070BD41F6B051BDE8C5
:101F300070400E4803F013BA0D4DC0F30434EBE7C4
:101F4000C0F3043410200B4DFFF794FDE4E7C0F319
:101F50000434094D0120F7E7084DC0F30434DBE7F2
:101F6000074DC0F30434D7E740800C40746500008F
:101F700078800C4060800C4058800C4044800C40BD
:101F800008800C4008B500F00F00013806284CD836
:101F9000DFE800F00414254B4B333B00294BDB6A90
:101FA00003F47053B3F5805F4AD0B3F5005F45D0BA
:101FB000B3F5006F0CBF0420052008BD214B986AC3
:101FC00000F003000228F8D0032835D0012837D0CC
:101FD0009B6A13F4803F0CBF01200A20EDE7194AE9
:101FE000936A03F00C03082B28D00C2B24D0042B6D
:101FF00026D0936A13F4801FEDE7124B1B6813F091
:10200000805F0CBF07200920D7E70E4BDB6A03F483
:102010006033B3F5803F11D0B3F5003F10D0B3F576
:10202000004F0CBF09200120C7E7074842F20131E9
:1020300003F095F90020C0E70620BEE70220BCE7C8
:102040000320BAE700800C407465000010B52B4BEC
:102050000446984223D02A4B984213D041F61311DC
:10206000284803F07CF92046FFF78CFF044641F630
:102070004211244803F073F9032C37D8DFE804F049
:102080003B1C2024FFF77EFF1F4A936AC3F38103A2
:10209000013B022B27D8DFE803F00F131700FFF7EF
:1020A00071FF194A936A03F00303013B022B12D814
:1020B000DFE803F002060A00BDE8104003F049B96A
:1020C000BDE81040FEF7B8BFFEF78AFF0F4B9B6FCD
:1020D0000133D84010BD936A1022D3400BD0BDE825
:1020E000104003F039B9936A1422F6E741F66D11F6
:1020F000044803F034F90020ECE700BF02001E00A2
:10210000030020007465000000800C400000904334
:1021100038B500F47813B3F5E01F054600F087806A
:102120002ED8B3F5801F00F0918018D8B3F5802F1A
:1021300050D006D87BB1B3F5003F53D04FF4F751E0
:102140007FE0B3F5602FF9D15048FFF71BFF072858
:102150007CD0092873D1BDE83840FEF7DDBEB3F569
:10216000B01F43D0B3F5D01F5BD0B3F5901FE5D1BE
:102170004748FFF76BFF474B9B6EC3F303132FE0FA
:10218000B3F5281F3AD00DD8B3F5001F47D0B3F5EB
:10219000181F5FD0B3F5F01FD0D13D48BDE83840DF
:1021A000FFF754BFB3F5381F31D0B3F5781F63D0B4
:1021B000B3F5301FC2D13648FFF748FF354A936E5A
:1021C000C3F30133D840D36F03F007030133B0FBEF
:1021D000F3F038BDFEF7A0FE2E4B9B6803F00F0313
:1021E000D840F6E7BDE83840FEF7FABE2848FFF7CA
:1021F0002DFF284B9B6EC3F30323F1E72448FFF721
:1022000025FF244B9B6EC3F301330433E8E72048DA
:10221000FFF71CFF1F4B9B6E03F00303E0E71E4814
:10222000BCE71D48FFF712FF1A4B1B6FF4E71A4873
:10223000FFF70CFF174B1B6FC3F30113D0E741F2FD
:10224000D661164803F08BF80020C2E7BDE838409D
:10225000FFF7C8BB1248FFF795FE032808D00928EE
:102260003FF479AF0228EFD1BDE83840FEF7E4BE75
:10227000BDE8384003F06DB8FEF7B2FE04462846CC
:10228000FFF7A8FCB4FBF0F0A3E700BF06000E00C8
:1022900002001E0000800C40030020007465000056
:1022A0000723260010B504461120FFF76BFE042813
:1022B00004D142F673210C4803F051F808230B4A6D
:1022C00013621368E17823F4D16323F007030B430F
:1022D000617843EA4123217843EA8103A17843EA04
:1022E000C113136010BD00BF7465000000800C4076
:1022F00010B58028044604D942F60D31074803F092
:102300002EF8074A936D1B0706D4D36F04F0070419
:1023100023F007032343D36710BD00BF746500009B
:1023200000800C4070B505461120FFF72BFE0228F7
:1023300004D142F62B31144803F011F84FF4007326
:10234000124E3362AC786B78E40244EA83442B7813
:10235000C3F3400344EA433403F0AFF833685C400E
:1023600024F07F4424F4730424F4474424F0FF044D
:102370005C40346003F0A5F82B78054A03F00103B4
:10238000C2F8A03470BD00BF7465000000800C402E
:1023900000008C43014B1880704700BFD61000200E
:1023A000014B1880704700BFD410002030B40428BF
:1023B0000BD80E4B1C5C0E4B33F810500D4B33F802
:1023C00010000D4B39B918620DE042F6F93130BCFE
:1023D0000A4802F0C4BF1D622AB1094B23449B0086
:1023E0001A68002AFCD030BC704700BFD4650000DA
:1023F000CA650000C065000000800C4074650000E4
:102400006001E41008B5FFF73FFB0130FFF76EFBFA
:10241000FEF7F6FD104A114B984213684FF0020088
:1024200096BF23F0600343F0600343F02003136082
:1024300001221146FFF7BAFFFFF7AAFB0222064B63
:102440005A62FEF7CDFDFFF751FBFEF7C9FDBDE86F
:1024500008400021FFF7AEBB00800C400048E801B7
:1024600010B500F00F04631E062B00F2CD80DFE8EC
:1024700003F0044E4ECBCB91A300023908293DD87E
:10248000DFE801F03F42052E3C3C3C3C3500FFF7C5
:10249000FBFA0130FFF72AFBFEF7B2FD5C4B5D4A09
:1024A0009842136817D943F0600302200446136072
:1024B00001221146FFF77AFFFFF76AFB554B5C627A
:1024C000FEF78EFD0446FFF711FB2046BDE81040E5
:1024D0000021FFF76FBB23F0600343F02003E4E724
:1024E000FFF7D2FA0130FFF701FB0320E0E742F2E9
:1024F0002F51BDE81040484802F031BF42F234513C
:10250000F7E700200424D3E701200324D0E70139B2
:1025100009292DD8DFE801F02F05192C2C212C2CAE
:102520002C32012200201146FFF740FF0023022138
:102530003848022C826A23D122F4803222F003022E
:102540000A4342EA0342826210BD0122114610464C
:10255000FFF72CFF00230121EAE7FEF741FDFFF71B
:10256000C5FA01222D4B0321C3F810280023DFE711
:1025700042F2DD51BDE700230021D9E70123FBE74B
:102580001B0522F4801243EA810322F00C0213435C
:102590008362D9E7072904D0092908D042F23861BB
:1025A000A7E71C4A136823F080531360CCE7194A4D
:1025B000136843F08053F8E703290FD0092919D095
:1025C00002291ED1012200201146FFF7EFFE402212
:1025D000104B5A62DA6AD003FCD5B5E701221146E6
:1025E0001046FFF7E3FE60220A4B5A62DA6A910353
:1025F000FCD5A9E72022074B5A62DA6A1204FCD5FF
:10260000A2E742F2776174E742F26D7171E700BFB1
:102610000048E80100800C40746500000000904311
:1026200010B5C3B2262B044604D94FF44D710748A8
:1026300002F095FE064B620953F8220004F01F04D5
:10264000E040C04300F0010010BD00BFD9650000AC
:1026500000E100E0F0B51F4C079EA5684FEA001EA0
:1026600005EB0015DDE9057C6ABBE4687444ED68A0
:1026700005B12A72BCF1000F0AD0A568C5F38165C7
:10268000032D1BBF06FA05F56544C4F800C025609C
:102690003FB1A568AD0F032D1CBF06FA05F57F19E4
:1026A0006760012505FA00F00A4D73B1A86172B1A7
:1026B0006863A36841EA061123F47F5323F03703CC
:1026C0001943A160F0BD2C46D1E7E861EFE728632C
:1026D000EFE700BF00200C4070B51F2905460C46EF
:1026E000164603D99121064802F039FE05F1424011
:1026F00000F5801004EBC004A400266070BD00BF8C
:10270000DE6400002DE9F84F1D4B1D68DB681D409D
:1027100004D54FF489711B4802F021FE0227DFF82F
:102720006890DFF85CB0D9F8388005EA0806002424
:102730004FF0010A19E0F30715D5D9F808300AFA65
:1027400004F2CBF8082003EB0413DA685AB1117ACB
:1027500081F00103137213682BB1003918BF0121F6
:1027600020465268984776080134002EE3D1012FA5
:1027700025EA080601D00127D9E7BDE8F88F00BF98
:1027800000300C402566000000200C402DE9FF4180
:102790000B2804460D4616461F46DDF82C8004D94A
:1027A0004FF4D4710E4802F0DAFDB8F5806F04D30F
:1027B00040F2A9110A4802F0D2FD0A9B2A46CDE94F
:1027C0000073012133462046CDF80880FFF742FF11
:1027D0000123044AA340936204B0BDE8F08100BF26
:1027E0002566000000200C402DE9F04385B00B2841
:1027F00004460D4616461F46DDF83080DDF83C9055
:1028000004D940F2F111174802F0A9FDB8F5806F24
:1028100004D34FF4F971134802F0A1FDB9F5806FAC
:1028200004D340F2F3110F4802F099FD0E9B2046AD
:1028300001930D9B0022009303212B46CDF80890B5
:10284000FFF708FF2B46012203212046CDE901783E
:102850000096FFF7FFFE044BA2409A6205B0BDE868
:10286000F08300BF2566000000200C4038B50B281F
:1028700004460D4604D940F29921134802F06FFD39
:1028800025B940F29A21104802F069FD0F4AA96863
:10289000936803EB0413D96001232978A34081B125
:1028A0009363686804F5886142F821006A7812B180
:1028B000074A936001222146BDE838400548FFF7EA
:1028C0000BBFD363EDE700BF2566000000200C407E
:1028D00000300C400C300C4070B50B2805460E46FD
:1028E000144604D940F2DF21104802F038FD24B923
:1028F0004FF438710D4802F032FD0D4BA6B19868C7
:10290000A2782178130743EA8173617800EB051000
:1029100043EA816343EA0263E2782179920342EA5F
:1029200081421343836070BDD868E9E725660000E3
:1029300000200C4038B50B2804460D4604D94FF44E
:102940006471064802F00BFD012303FA04F4044B02
:102950000DB19C6238BDDC62FCE700BF256600005B
:1029600000200C4038B50B2804460D4604D940F22F
:10297000BE31064802F0F3FC0122214625B104488D
:10298000BDE83840FFF7A8BE0248F9E72566000019
:1029900024200C4020200C402DE9F8430B2805464C
:1029A000DDE90886894617461C4604D940F23341C2
:1029B000214802F0D4FCB6F5806F04D340F23441D4
:1029C0001D4802F0CCFC9DF828302901002B0CBFDB
:1029D00003220122194BB9F1000F28D09B6819443A
:1029E000B8F1000F0AD08B68C3F38163032B1BBFC0
:1029F00006FA03F34344C1F800800B603CB18B68D6
:102A00009B0F032B1CBF06FA03F3E4184C60012351
:102A10000A48AB406FB18361886842EA061320F42C
:102A20007F5020F0370003438B60BDE8F883DB68FC
:102A3000D5E7C361F0E700BF2566000000200C4029
:102A400001200F4BC3F88000BFF34F8FBFF36F8F90
:102A500040F6FF7100230B4A5360D1615162D1628D
:102A60005163D163D06408490848CB608860184638
:102A700003F5886101330C2B42F82100F8D170472F
:102A800000E100E000200C4000300C40FF0F00800F
:102A900010B5044620B940F2DA31114802F05FFC6B
:102AA000237923B14FF478710D4802F058FC0121CD
:102AB0000C48FFF71BFAFFF7C3FF01220A4BC3F8CC
:102AC00080211A604FF00041084B094AD9606368C1
:102AD000936023785B0143F00103536010BD00BF96
:102AE000256600000003020000E100E000300C4019
:102AF00000200C4010B504798378094923430478F9
:102B0000CA6A43EA0443C478407822F4803243EA34
:102B1000440322F01F0243EA00131343CB6210BDAB
:102B200000600C4038B5052804460D4605D80A4B10
:102B300033F81030CB40DB0704D44FF486610748EC
:102B400002F00DFC24220123544304F18044AB40E5
:102B500004F5C044236138BDBC660000DC6300009E
:102B600038B5052804460D4605D80A4B33F8103011
:102B7000CB40DB0704D440F20141074802F0EFFBF1
:102B800024220123544304F18044AB4004F5C044A3
:102B9000636138BDBC660000DC63000010B5062828
:102BA000044603D94D21064802F0D9FB054AD2F864
:102BB000203123F4407343EA0423C2F8203110BDCE
:102BC000706600000060004038B5052804460D46D8
:102BD00001D8032903D96821074802F0C0FB242348
:102BE00003FB04F000F1804000F5C040036823F0CF
:102BF00003032B43036038BD706600002DE9F843E2
:102C000005280646154698469DF8209006D8254B7F
:102C100033F8103023FA01F1CB0703D4BF21224847
:102C200002F09DFB0127214C072D2C444FF007019A
:102C300007FA05F74FEA84040FD81D4B1D482344BB
:102C400006FA03F2994002F048FC1B4B44F8808CD2
:102C5000C4F80090C3F81C711DE0A5F108039B00A7
:102C6000164806FA03F2994002F037FC1F2DECD902
:102C70009121134802F073FB9121114844F8808C94
:102C800002F06DFB0C4BC4F8009091210C48C3F886
:102C90001C7102F064FB9DF82430C4F88030BDE85C
:102CA000F88300BFBC6600007066000060088310F7
:102CB00080DEF3BD00610040006000400461004020
:102CC000DE640000F8B5052805460C4616461F468A
:102CD00005D81C4B33F81030CB40DB0704D44FF43D
:102CE000B071194802F03BFB26B121462846C7B116
:102CF000FFF718FF2423072C4FF00F0105FB03F308
:102D000012D8A00006FA00F281401048184402F0E0
:102D1000E4FBAEB92146284677B1BDE8F840FFF79D
:102D200001BFFFF71DFFE5E7A4F10800800006FAE8
:102D300000F281400648E9E7BDE8F840FFF710BF20
:102D4000F8BD00BFBC660000706600000460004073
:102D50000860004070B51F2905460C46164603D989
:102D60009121064802F0FBFA05F1424000F580107F
:102D700004EBC004A400266070BD00BFDE64000048
:102D800070B5114D04466E6818B946210F4802F01F
:102D9000E6FA2B68E26823F001032B6063681343B3
:102DA00026F4830222F01F021343227A1343627A2D
:102DB0001A43238A13436B6023781BB12B6843F0BB
:102DC00001032B6070BD00BF00A00840C866000072
:102DD000054AB0F5803F536823F4803308BF43F4BD
:102DE00080335360704700BF00A00840044B9A68CE
:102DF00011B102439A60704722EA0002FAE700BF6D
:102E000000A0084037B5072805460C4613DD40F200
:102E10002721374802F0A3FA272C04DD40F22E21A7
:102E2000334802F09CFA4FF42671314803B0BDE8F4
:102E3000304002F094BA27290EDD40F22E212C48B2
:102E4000019202F08CFA019A072DECD8DFE805F028
:102E5000141C242C343C444C0728E4D8DFE800F050
:102E600004101820283038401F2905DC214803B001
:102E7000BDE83040FFF76EBF1F48A4F12001F6E720
:102E80001F2901DC1D48F2E71D48A4F12001EEE7EF
:102E90001F2901DC1B48EAE71B48A4F12001E6E7F3
:102EA0001F2901DC1948E2E71948A4F12001DEE7F7
:102EB0001F2901DC1748DAE71748A4F12001D6E7FB
:102EC0001F2901DC1548D2E71548A4F12001CEE7FF
:102ED0001F2901DC1348CAE71348A4F12001C6E703
:102EE0001F2901DC1148C2E71148A4F12001BEE707
:102EF000C866000040A0084050A0084044A0084018
:102F000054A0084048A0084058A008404CA00840E1
:102F10005CA00840CCA00840B4A00840D0A0084065
:102F2000B8A00840D4A00840BCA00840D8A00840E1
:102F3000C0A0084008B507280BDD40F2033129483E
:102F400002F00DFABDE8084040F24331254802F096
:102F500006BA0728F6D8DFE800F0040B121920297A
:102F6000323B214B186C42400A4042401A6408BD73
:102F70001D4B586C42400A4042405A64F7E71A4BD6
:102F8000986C42400A4042409A64F0E7164BD86C75
:102F900042400A404240DA64E9E7134BD3F8CC00E0
:102FA00042400A404240C3F8CC20E0E70E4BD3F841
:102FB000D00042400A404240C3F8D020D7E70A4B35
:102FC000D3F8D40042400A404240C3F8D420CEE7B0
:102FD000054BD3F8D80042400A404240C3F8D820FD
:102FE000C5E700BFC866000000A00840072804DD50
:102FF0004FF45771254802F0B2B9072844D8DFE8EA
:1030000000F0040B12192029323B214B186D42406D
:103010000A4042401A6570471D4B586D42400A40B5
:1030200042405A6570471A4B986D42400A404240F0
:103030009A657047164BD86D42400A404240DA65A7
:103040007047134BD3F8B40042400A404240C3F8E3
:10305000B42070470E4BD3F8B80042400A404240BB
:10306000C3F8B82070470A4BD3F8BC0042400A406E
:103070004240C3F8BC207047054BD3F8C000424023
:103080000A404240C3F8C020704700BFC866000035
:1030900000A00840034A536823F4E013034353603D
:1030A000704700BF00A0084070B51F2905460C46B8
:1030B000164603D99121064802F051F905F1424024
:1030C00000F5801004EBC004A400266070BD00BFB2
:1030D000DE6400002DE9F0410F46044618B91F4890
:1030E000FFF716F804466FF07E439C4204D34FF47A
:1030F000A8711B4802F033F90FB1BC4204D240F270
:103100005311174802F02BF94FF0010800264346EF
:1031100007FB08F5B4FBF5F5402D01D9072E18D1B2
:103120006F1EFF2F04D94FF4B0710D4802F017F94C
:103130000C4A08FB05F05368B4FBF0F023F47F233E
:1031400023F4E06343EA062343EA07335360BDE810
:10315000F081013603FA06F8DAE700BF80062E0098
:103160001367000000C0084010B50328044604D9C6
:1031700040F2E511054802F0F2F8054A536823F4DD
:10318000400343EA8453536010BD00BF136700003F
:1031900000C0084010B50C4678B1012815D10329AC
:1031A00004D94FF40E710C4802F0D9F80B4A536859
:1031B00023F003031C43546010BD084A536823F0F6
:1031C000700343EA01135360F6E74FF41471BDE84E
:1031D0001040014802F0C3B81367000000C0084067
:1031E000F8B53F2905460E4617461C4604D940F25D
:1031F000D6310D4802F0B3F87F2C04D940F2D73114
:10320000094802F0ACF83B0604D540F2DA31064832
:1032100002F0A5F86403054B44EA87122C353243CB
:103220002D015A51F8BD00BF1367000000C00840CF
:1032300070B5B1F5805F04460D46164604D340F2E2
:103240002641104802F08BF80F2C04D94FF4856109
:103250000C4802F084F8200100F1804202F50C22B3
:10326000D2F8C43223F47F6323F00F031D43C2F866
:10327000C452D2F8C8321B0C1B041E43C2F8C862E9
:1032800070BD00BF13670000F8B50F2904460D4656
:1032900004D940F2A9214A4802F061F8E37B3F2BB0
:1032A00004D940F2AA21464802F059F8638A7F2BDC
:1032B00004D940F2AB21424802F051F894F91030A1
:1032C000002B04DA40F2B1213D4802F048F8A38A0D
:1032D000B3F5805F04D340F2B721394802F03FF8DC
:1032E0006368B3F5C03F09D14FF20F032B41DB07F1
:1032F00004D440F2B921324802F031F8237A032B8A
:1033000008D1A5F10C03032B4ED840F2C2212C4862
:1033100002F025F803232B4E6900B26B8B4022EAA2
:103320000302237AEFB28B401343B3633846638AB8
:10333000227CE17BFFF754FFA37B627B9B0443EA83
:1033400042436268218B1343E28A38460A4392B2B1
:103350001343627AA18A43EAC24305F12C0206EBC9
:1033600002125360237BA27A9B0443EA4243E26940
:1033700006EB05161343E27A43EAC243C6F8C832A5
:10338000628BFFF755FF2946A2780F48FFF78CFEA6
:10339000294662780D48FFF787FE294622780C48B7
:1033A000BDE8F840FFF780BE40F2BD21044801F0BF
:1033B000D6FF237A032BADD1032DABD9A5E700BFF0
:1033C0001367000000C008404CC0084054C00840CB
:1033D00018C0084010B50F28044604D940F2C65161
:1033E000034801F0BCFF034B04F00F041C6310BD45
:1033F0001367000000C00840044B1A6D9106FCD40E
:1034000001225A611A6D9206FCD4704700C0084030
:10341000044A136823F003031843106009B1FFF74F
:10342000EBBF704700C00840044B1A6D9106FCD4F6
:1034300002225A611A6D9206FCD4704700C00840FF
:10344000044B1A6D9106FCD408225A611A6D92063B
:10345000FCD4704700C0084030B500231D4AD36437
:103460001D4B5364D36843F00103D360136D13F015
:103470002003FBD10A211C46516113609360D36085
:10348000136193619363D363536353651A46114D7C
:10349000110101F18040013200F50C202944102A6D
:1034A000C0F8C042C0F8C442C1F8C842F0D10021FF
:1034B000DA0002F18042013302F50C22102BC2F82F
:1034C0000012C2F80412F3D1024A136D9B06FCD419
:1034D00030BD00BF00C00840FFFF7F0038B5037D4E
:1034E0000446032B0D4603D97821424801F037FFEB
:1034F000A37F1F2B03D97A213E4801F030FF0DB185
:10350000FFF7AAFF207DFFF72FFED4E90232134315
:10351000A278394D13436278002143EA8203E278AE
:1035200043EA4223227943EA8223627943EA42331F
:10353000A27943EA4243E27943EA0243627C43EAE6
:1035400082532B602078FFF763FFA26A236A13433C
:10355000227E1343E27E43EA4203627E43EA820311
:10356000A27E43EA8213227F43EA0213627F43EA88
:103570000223A27F43EA822394F8242043EA0253E1
:1035800094F8252043EA8253AB6094F83C3094F8D9
:103590003B209B0343EA8223A28D134394F83D20F2
:1035A00043EA824394F83E2043EA825394F834205D
:1035B00043EA420394F8352043EA820394F8362024
:1035C00043EAC20394F8372043EA021394F8382000
:1035D00043EA421394F8392043EA821394F83A20DC
:1035E00043EAC213EB60206BFFF7F4FE237C2B61F0
:1035F00038BD00BF1367000000C0084010B5044686
:1036000018B957210F4801F0AAFE0F4AD2F8E4304A
:10361000D2F8E0109B0003F03C03C1F381110B438F
:10362000A370D2F8E03003F03F036370D2F8E830C3
:10363000D2F8EC2003F0F003C2F30312134323701B
:1036400010BD00BF6267000000FF0FE0024BD3F81F
:10365000FC00000E704700BF0081E00F024BD3F862
:10366000FC00C0F3074070470081E00FF8B5074643
:103670000C461D4616464AB940F25511314801F034
:103680006EFE24B1402D08D1062327E019B92E483B
:10369000FEF73EFD0446402D42D0402D09D87DB1B5
:1036A000202D17D04FF4CE71BDE8F840254801F029
:1036B00056BE602DF6D1B6EB940F3CD804230DE036
:1036C000B6EB141F04D940F287111E4801F047FEE3
:1036D000102303E0B6EBD40F1CD808235E43730815
:1036E00003EB8403B3FBF6F3184E043BB6EB831FE6
:1036F0004FEA831404D240F2B311124801F02FFEB6
:103700003B68344023F060033B603B681D433D60F1
:103710007C61F8BD4FF4C6710A4801F020FEDCE779
:103720000623B4FBF3F3B342AED240F29111054845
:1037300001F015FEA8E74FF4CB71024801F00FFE2F
:10374000BCE700BFB067000040810400C0FF1F005D
:1037500038B5104B044698420D4614D003F58063EB
:10376000984210D003F5806398420CD003F5C05303
:10377000984208D003F58063984204D04FF4397121
:10378000054801F0ECFDEB435B0003F00A03E36046
:10379000E56038BD00C00040B067000010B51C4BAC
:1037A0000446984214D003F58063984210D003F584
:1037B000806398420CD003F5C053984208D003F5BB
:1037C0008063984204D040F25E41124801F0C7FD88
:1037D00040F6AA6341F20502E360002323606260C1
:1037E00041F6F972A3606361E364A264084A636509
:1037F000944202D12365A36510BDA365064B9C428C
:1038000003D003F580639C42F6D10023E365F3E720
:1038100000C00040B067000000C4004038B5224B33
:10382000044698420D4614D003F58063984210D0A8
:1038300003F5806398420CD003F5C053984208D03A
:1038400003F58063984204D040F21531174801F027
:1038500086FD2046FFF7A2FFAB7C1BB1236843F037
:1038600080432360EB7C1BB12B7D43F01003A365E9
:103870002A8A6B7B20461343EA89134363602B7BC0
:10388000D5E90112FFF7F2FE6B7D1BB1236843F40B
:1038900080332360AB7D1BB1236843F40043236076
:1038A0002B78E36038BD00BF00C00040B067000067
:1038B00007B5064B18681B79009068468DF80430F0
:1038C000FFF718F9002003B05DF804FBFD67000066
:1038D00007B5084B186801900748FDF797FB01A84A
:1038E000FEF7E0FC3220FEF75BFD002003B05DF840
:1038F00004FB00BF02680000006CDC0210B56FF032
:103900000403A0210A480B4C13F0800F03F10102BD
:1039100007D12344272A83F800131346F4D100204B
:1039200010BD03F00F03043B034419761346EBE785
:1039300000ED00E000E100E010B5044601F0BDFD3F
:10394000024B1C6001F0BDFD002010BD3C180020A2
:1039500010B501F0B2FD034B1C6801F0B2FD20462A
:1039600010BD00BF3C18002037B5044601A9007AFD
:10397000FDF7DEFE20B140F2EE21114801F0EFFC30
:10398000104B227A9B6803EB02135D68019BC3F125
:1039900001031D44D4E9032313449D4201D8AA42E4
:1039A00004D94FF43E71064801F0D9FCD4E9032351
:1039B00013449D4214BF2846104603B030BD00BFDB
:1039C0000668000000200C4030B587B0144605465C
:1039D0001046FFF7C9FF6369024683423CBFD4E942
:1039E00003315B181B1AABB11249049403910021F7
:1039F000CDE90131012300932846D4E9001301F0F9
:103A000042FD20B14FF434710B4801F0A8FC0020B6
:103A100007B030BD0122627694F82D20002AF6D03E
:103A200084F835301321E369204698472046636ABD
:103A30009847ECE7C9390000066800002DE9F04717
:103A400088B004460F461646984601F03DFD814673
:103A5000002E00F0BF80237E03F0FF02002B00F059
:103A6000F280207AFDF798FD20B140F2733177485B
:103A700001F075FC2046FFF777FF8246207AFDF7BC
:103A8000ADFD20B140F27A31704801F068FC636905
:103A90009A4506D1637E23B940F27F316B4801F02D
:103AA0005EFC6569AA459DBFD4E903329B185D1B86
:103AB000AAEB0505B54228BF354601F005FD94F88F
:103AC0002D308246002B40F096802A4638466169A8
:103AD00001F0F2FD63692E462B4463612CE06069BE
:103AE000037803F0FD01112940F08280216B8842A8
:103AF00005D1A3F111014B424B4184F83430013E12
:103B00006369216B01328B4203F1010308BF236318
:103B100063619542E3D1D4E90323216B13449942B5
:103B200008BF2263216B8A4201D88B4204D84FF42C
:103B30006D71464801F013FCD4E903236169134415
:103B4000994208BF626161698A4201D88B4204D8F8
:103B50004FF471713D4801F002FC0023207A637636
:103B6000FDF71AFD20B140F21131384801F0F7FBA2
:103B70002046FFF7F9FE636983423FD10023E568E1
:103B8000237694F82D30656103B125632046636A7E
:103B900098472F4B049403930023029323692A46EA
:103BA00001930123009363682168207A01F06BFC84
:103BB00020B140F22D31254801F0D1FB207AFDF7EC
:103BC0000DFD20B140F25131204801F0C8FB5046B4
:103BD00001F080FC4846C8F8006001F07BFCD8F892
:103BE0000030002B0CBF1B20002008B0BDE8F08780
:103BF00007F8013B84E72E4600228AE70123207A5A
:103C000023760DF11E01FDF757FD20B14FF45071E1
:103C10000E4801F0A4FB9DF81E30207A002BCDD079
:103C20000DF11F01FDF71EFD20B140F2463107489E
:103C300001F095FB9DF81F10207A0029BED1224685
:103C4000FFF7C2FEBAE71646C4E700BF06680000E9
:103C5000C939000070B504460568FFF779FE844253
:103C600002D10020FFF768FE95F93630002B11DBFA
:103C7000012203F01F015B099B0003F160438A40AE
:103C800003F56143C3F88021C3F88020BFF34F8F51
:103C9000BFF36F8F287AFDF7C3FC20B14FF4ED71AD
:103CA000104801F05CFB287AFDF71EFC20B14FF4B0
:103CB000EF710C4801F053FBFDF7E0FB38B10A4B04
:103CC000984204D04FF4F171064801F048FB0023FC
:103CD0002846C4E90033C4E90433A360AB6ABDE8F5
:103CE0007040184706680000058000F02DE9F04795
:103CF00004460D4690F82C80DFF8D0908E18AE4226
:103D000028D094F82D3083B101F0DEFB237E0746E6
:103D10001BBB226B63699A4204D040F2F9114846FA
:103D200001F01DFB384601F0D5FB94F83430002B30
:103D3000E5D0B8F1000F06D02B780A2B03D10D2166
:103D40002046E36998472046E36915F8011B984728
:103D50000028D4D00020BDE8F087207AFDF71CFCB5
:103D600020B140F2FF11194801F0F9FA2046FFF79F
:103D7000FBFD00F1FF3A207AFDF730FC20B140F264
:103D80000721124801F0EBFAE168206B8A453EBF3B
:103D9000236903F1FF3301EB030A534698420BD02A
:103DA00013F80129112A01D0132A08D1A2F1110315
:103DB0005A425A4184F83420C4F830A0B2E79942FC
:103DC00082BF236903F1FF335B18E7E70668000051
:103DD000F0B587B00C46064615460021382220462D
:103DE0001F4601F05EFC95E8030000232A69237654
:103DF000EB6884E80300C4E904232A7DE36084F8C7
:103E00002C20AA7D2363012384F8343084F83530D4
:103E10000C9B84F82D2023620D9BE76163620E9B4F
:103E2000A3622B7A84F83630204B34607360204BC9
:103E3000B360204B3361204B7361204BF360FDF77F
:103E40007BFB30B11E4B984203D01024204607B0B4
:103E5000F0BD002104F10800FDF7E0FA0028F4D1DC
:103E60000127184B0494CDE90203236900970193BD
:103E70006368E2682168207A01F005FB04460028A7
:103E8000E3D195F90830002B0BDB03F01F025B092F
:103E90009B0003F16043974003F56143C3F88071D1
:103EA0001F603046FFF748FDD0E700BFED3C000043
:103EB0003D3A00003D55000043550000553C0000D0
:103EC000038000F0C93900002DE9F04186B01C469E
:103ED000294B01260293294B0C9D01930023904608
:103EE00000930A46CDE903662946254BFFF770FF8C
:103EF000074600283BD123683146AB6363682148FD
:103F0000EB63637A85F84130237A85F84030E37AB1
:103F100085F84330A37A85F84230FDF7E7FF314654
:103F20001948FDF7E3FF33460422617A207AFEF751
:103F3000C9FE33460222E17AA07AFEF7C3FE31467B
:103F40006068FDF7D3FF88F8007041462068FFF7EE
:103F500065FC637C20681B02AA6B43F00303436586
:103F6000D36C052143F00403D364FFF7F1FB38461B
:103F700006B0BDE8F08100BF55550000495500006E
:103F80009D5500004081040000D2040038B504684B
:103F9000237EA06B33B9C36C23F00403C3640123F5
:103FA000237638BD637E13B394F82D30FBB1002522
:103FB000132184F8355001F0ABFAA36BDA6C42F0B0
:103FC0000402DA64DB69DBB2112B0BD1012384F824
:103FD0003430094B227A9B6803EB02135B68013B88
:103FE0002363DEE7132BDCD184F83450F1E7C36C94
:103FF00023F00403C364D4E700200C4010B504464A
:10400000FCF7EEFF4FF47A729042B0FBF2F105D26A
:104010003621BDE810400B4801F0A1B90A4BB3FBB3
:10402000F1F30A49884201D93C21F2E702FB04F08E
:10403000B0FBF3F0032804D9BDE810408008FCF77A
:104040004FB810BD6668000040420F00E7CD9A3BB4
:1040500070B54FF0FF0C4CF4E06C1CEA11541DBF1E
:104060001CEA135594EA0C0F95EA0C0F00F0DEF8E9
:104070002C4481EA030621EA4C5123EA4C5350EACE
:10408000013518BF52EA033541F4801143F480131F
:1040900038D0A0FB02CE4FF00005E1FB02E506F0B0
:1040A0000042E0FB03E54FF00006E1FB03569CF005
:1040B000000F18BF4EF0010EA4F1FF04B6F5007F0B
:1040C00064F5407404D25FEA4E0E6D4146EB06067D
:1040D00042EAC62141EA55514FEAC52040EA5E5006
:1040E0004FEACE2EB4F1FD0C88BFBCF5E06F1ED8B0
:1040F000BEF1004F08BF5FEA500E50F1000041EBE7
:10410000045170BD06F0004646EA010140EA020093
:1041100081EA0301B4EB5C04C2BFD4EB0C0541EAB5
:10412000045170BD41F480114FF0000E013C00F3CA
:10413000AB8014F1360FDEBF002001F0004170BDEE
:10414000C4F10004203C35DA0C341BDC04F1140407
:10415000C4F1200500FA05F320FA04F001FA05F293
:1041600040EA020001F0004221F0004110EBD37060
:1041700021FA04F642EB06015EEA430E08BF20EA8C
:10418000D37070BDC4F10C04C4F1200500FA04F32F
:1041900020FA05F001FA04F240EA020001F00041C1
:1041A00010EBD37041F100015EEA430E08BF20EA34
:1041B000D37070BDC4F1200500FA05F24EEA020E7C
:1041C00020FA04F301FA05F243EA020321FA04F0AB
:1041D00001F0004121FA04F220EA020000EBD37062
:1041E0005EEA430E08BF20EAD37070BD94F0000F62
:1041F0000FD101F00046400041EB010111F4801F96
:1042000008BF013CF7D041EA060195F0000F18BF46
:10421000704703F00046520043EB030313F4801F82
:1042200008BF013DF7D043EA0603704794EA0C0F3C
:104230000CEA135518BF95EA0C0F0CD050EA410652
:1042400018BF52EA4306D1D181EA030101F00041CF
:104250004FF0000070BD50EA410606BF10461946F7
:1042600052EA430619D094EA0C0F02D150EA013603
:1042700013D195EA0C0F05D152EA03361CBF104644
:1042800019460AD181EA030101F0004141F0FE41E3
:1042900041F470014FF0000070BD41F0FE4141F467
:1042A000780170BD81F0004102E000BF83F000435F
:1042B00030B54FEA41044FEA430594EA050F08BFC1
:1042C00090EA020F1FBF54EA000C55EA020C7FEA85
:1042D000645C7FEA655C00F0E2804FEA5454D4EB02
:1042E0005555B8BF6D420CDD2C4480EA020281EACC
:1042F000030382EA000083EA010180EA020281EA04
:104300000303362D88BF30BD11F0004F4FEA013155
:104310004FF4801C4CEA113102D0404261EB410164
:1043200013F0004F4FEA03334CEA133302D05242EA
:1043300063EB430394EA050F00F0A780A4F10104A6
:10434000D5F1200E0DDB02FA0EFC22FA05F28018E0
:1043500041F1000103FA0EF2801843FA05F35941C6
:104360000EE0A5F120050EF1200E012A03FA0EFC45
:1043700028BF4CF0020C43FA05F3C01851EBE3716F
:1043800001F0004507D54FF0000EDCF1000C7EEB8C
:1043900000006EEB0101B1F5801F1BD3B1F5001FCA
:1043A0000CD349085FEA30004FEA3C0C04F10104E9
:1043B0004FEA445212F5800F80F09A80BCF1004F12
:1043C00008BF5FEA500C50F1000041EB045141EA94
:1043D000050130BD5FEA4C0C404141EB0101013C5D
:1043E00028BFB1F5801FE9D291F0000F04BF01464C
:1043F0000020B1FA81F308BF2033A3F10B03B3F11E
:1044000020020CDA0C3208DD02F1140CC2F10C02AD
:1044100001FA0CF021FA02F10CE002F11402D8BF0B
:10442000C2F1200C01FA02F120FA0CFCDCBF41EAD7
:104430000C019040E41AA2BF01EB0451294330BDA6
:104440006FEA04041F3C1CDA0C340EDC04F1140483
:10445000C4F1200220FA04F001FA02F340EA03005A
:1044600021FA04F345EA030130BDC4F10C04C4F1A0
:10447000200220FA02F001FA04F340EA0300294680
:1044800030BD21FA04F0294630BD94F0000F83F4CA
:10449000801306BF81F480110134013D4EE77FEAAD
:1044A000645C18BF7FEA655C29D094EA050F08BFF9
:1044B00090EA020F05D054EA000C04BF19461046DA
:1044C00030BD91EA030F1EBF0021002030BD5FEA1E
:1044D000545C05D14000494128BF41F0004130BD46
:1044E00014F580043CBF01F5801130BD01F000459A
:1044F00045F0FE4141F470014FF0000030BD7FEA0D
:10450000645C1ABF194610467FEA655C1CBF0B4607
:10451000024650EA013406BF52EA033591EA030F1E
:1045200041F4002130BD00BF90F0000F04BF002116
:10453000704730B54FF4806404F132044FF0000549
:104540004FF0000150E700BF90F0000F04BF0021C2
:10455000704730B54FF4806404F1320410F0004528
:1045600048BF40424FF000013EE700BF42004FEA23
:10457000E2014FEA31014FEA02701FBF12F07F43A0
:1045800093F07F4F81F06051704732F07F4208BF57
:10459000704793F07F4F04BF41F40021704730B55E
:1045A0004FF4607401F0004521F000411CE700BFAA
:1045B00050EA010208BF704730B54FF000050AE02D
:1045C00050EA010208BF704730B511F0004502D52E
:1045D000404261EB41014FF4806404F132045FEA30
:1045E000915C3FF4D8AE4FF003025FEADC0C18BFD9
:1045F00003325FEADC0C18BF033202EBDC02C2F1CB
:10460000200300FA03FC20FA02F001FA03FE40EA5C
:104610000E0021FA02F11444BDE600BF4A0011D297
:1046200012F5001211D20DD56FF47873B3EB62520C
:104630000ED44FEAC12343F0004343EA505323FA18
:1046400002F070474FF00000704750EA013002D18D
:104650004FF0FF3070474FF00000704708B5064B31
:10466000044613B10021AFF30080044B1B6803B173
:104670009847204600F077FE0000000078190020DF
:1046800038B5104B04461D682B6BB3B9182000F0E9
:10469000E9F90246286320B946210B4B0B4800F08C
:1046A0007BF90B490B4BC0E900130B4B00218360D6
:1046B0000B2383810120C2E9040100222B6B1C61C2
:1046C0005A6138BD7C100020BD680000D46800002D
:1046D0000E33CDAB34126DE6ECDE0500164B10B593
:1046E0001C68236BB3B9182000F0BCF902462063A4
:1046F00020B95221114B124800F04EF91149124BCA
:10470000C0E90013114B002183600B23838101203A
:10471000C2E90401216B0E480B694C6958430D4AEC
:1047200002FB0400A3FB0232013340EB0200C1E9AB
:10473000043020F0004010BD7C100020BD68000057
:10474000D46800000E33CDAB34126DE6ECDE05000C
:104750002DF451582D7F954C002310B50446C0E927
:104760000033C0E90433836081814366C281836181
:10477000194608225C3000F094FF0D4B24626362FE
:104780000C4BA3620C4BE3620C4B23630C4B9C421F
:1047900006D003F16802944202D0D0339C4205D186
:1047A00004F15800BDE8104000F083BF10BD00BF09
:1047B0001D5600003F560000775600009B56000033
:1047C00040180020024A0349034800F009BF00BF17
:1047D00070100020175900008010002041680C4B19
:1047E00010B59942044601D001F095F8A168094B33
:1047F000994202D0204601F08EF8E168064B9942BA
:1048000004D02046BDE8104001F085B810BD00BFBF
:1048100040180020A81800201019002010B50B4BDC
:104820000B4C0C4A20461A6004210022FFF794FF2B
:1048300004F1680001220921FFF78EFF04F1D00086
:104840000222BDE810401221FFF786BF7819002030
:1048500040180020C5470000014800F02BBF00BFF2
:10486000B7190020014800F026BF00BFB71900208B
:1048700010B50446FFF7F0FF236A1BB1BDE81040F6
:10488000FFF7F0BF044B2362044B1B68002BF5D1EC
:10489000FFF7C4FFF2E700BFDD47000078190020F2
:1048A0000FB407B5064904AB086853F8042B8168B8
:1048B000019300F085F903B05DF804EB04B0704794
:1048C0007C10002038B50023054D044608462B60B7
:1048D00000F046FD431C02D12B6803B1236038BDB4
:1048E0007C19002038B50446084611460022054DC3
:1048F0002A601A4600F041FD431C02D12B6803B127
:10490000236038BD7C19002038B50446084611469E
:104910000022054D2A601A4600F031FD431C02D1E9
:104920002B6803B1236038BD7C19002038B50446DC
:10493000084611460022054D2A601A46FBF774FC12
:10494000431C02D12B6803B1236038BD7C190020C1
:1049500070B500260C4D0D4C641BA410A64209D165
:1049600001F0EEF800260A4D0A4C641BA410A64282
:1049700005D170BD55F8043B98470136EEE755F870
:10498000043B98470136F2E7A0110020A011002057
:10499000A0110020A41100201FB514461A46094B8F
:1049A00005461B68D86854B9074B1C46CDE901344D
:1049B00000912B46054900F047FB01F020F8044B1D
:1049C000F4E700BF7C100020686900003A6900002D
:1049D0002D69000038B50546002940D051F8043C47
:1049E0000C1F002BB8BFE41800F0DEF81C4A136857
:1049F00033B9636014602846BDE8384000F0DAB887
:104A0000A34208D9206821188B4201BF19685B684E
:104A100009182160EDE71A465B680BB1A342FAD989
:104A200011685018A0420BD12068014450188342ED
:104A30001160E0D118685B68084410605360DAE7E1
:104A400002D90C232B60D6E7206821188B4201BFC6
:104A500019685B680918216063605460CBE738BD52
:104A600084190020024B0146186800F025B800BFE9
:104A70007C10002070B50F4E0C463168054611B908
:104A800000F04AFB30602146284600F045FB431CFD
:104A900003D14FF0FF34204670BDC41C24F0030442
:104AA000A042F8D0211A284600F036FB0130F2D19E
:104AB000EFE700BF801900202DE9F041CD1C25F063
:104AC000030508350C2D38BF0C25002D064601DBEB
:104AD000A94204D90C2333600020BDE8F081314F96
:104AE00000F062F83B681C4644BB29463046FFF79D
:104AF000C1FF431C044650D13C682146002941D1E6
:104B0000002C44D02368304604EB030800F004FB7B
:104B100080453CD1216830466D1A2946FFF7AAFF2F
:104B2000013034D023682B4423603B68002B36D0FF
:104B30005A68A24229D100225A600EE02268521B14
:104B40001DD40B2A16D96119A342256018BF5960DC
:104B5000636808BF396062514B60304600F02AF844
:104B600004F10B00231D20F00700C21AB5D01B1A58
:104B7000A350B2E7A3426268DED13A60EDE7234674
:104B80006468B1E70C464968B8E71346CEE70C23E2
:104B90003046336000F00EF89EE70560DDE75B60AD
:104BA000FFDE00BF84190020014800F083BD00BF74
:104BB000B6190020014800F07EBD00BFB6190020E4
:104BC0002DE9F04F0D461446984606469DB018B1A3
:104BD000036A0BB9FFF74CFE6B6ED90705D4AB899E
:104BE0009A0502D4A86D00F065FDAB891B0701D5BD
:104BF0002B699BB92946304600F038FA70B16B6ECC
:104C0000DC0704D54FF0FF301DB0BDE8F08FAB8955
:104C10009805F7D4A86D00F04EFDF3E70023099343
:104C200020238DF8293030234FF00109CDF80C8076
:104C3000DFF8A8818DF82A3023469A4613F8012B15
:104C40000AB1252AF9D1BAEB040B0BD05B462246F8
:104C50002946304600F05BFD013000F0A780099A3C
:104C60005A4409929AF80030002B00F09F800023EC
:104C70004FF0FF32CDE905230AF1010A04930793AF
:104C80008DF853301A935446052214F8011B5348EB
:104C900000F0A7FE049AD8B9D10644BF20238DF8AE
:104CA0005330130744BF2B238DF853309AF800304C
:104CB0002A2B15D0544600204FF00A0C079A2146A3
:104CC00011F8013B303B092B4BD9B0B1079214E0EE
:104CD000A0EB080309FA03F31343A2460493D2E7B7
:104CE000039B191D1B680391002BBBBF5B4242F065
:104CF000020207930793B8BF049223782E2B0AD1A0
:104D000063782A2B32D1039B02341A1D1B6803924D
:104D100043EAE3730593DFF8C8A0032250462178E5
:104D200000F05FFE38B14022049BA0EB0A008240F5
:104D300013430134049314F8011B062229488DF80B
:104D4000281000F04EFE00283FD0274B1BBB039BD2
:104D5000073323F0070308330393099B3B4409936C
:104D60006AE70C4601200CFB0232A8E700234FF053
:104D70000A0C194601340593204610F8012B303AED
:104D8000092A03D9002BC6D00591C4E704460123A4
:104D90000CFB0121F0E703AB00932A463046134B8E
:104DA00004A9AFF300800746781CD6D16B6ED907F3
:104DB00005D4AB899A0502D4A86D00F07CFCAB89C0
:104DC0005B063FF51FAF09981EE703AB00932A4629
:104DD0003046064B04A900F00BF8E4E769690000CF
:104DE0006F69000073690000000000000F570000A9
:104DF0002DE9FF470F7E9146782F80460C469A4654
:104E00000C9E01F1430207D8622F0AD8002F00F050
:104E1000DD80582F00F0C38004F1420684F8427010
:104E20003AE0A7F16303152BF6D801A151F823F05E
:104E3000894E00009D4E0000194E0000194E0000E2
:104E4000194E0000194E00009D4E0000194E000042
:104E5000194E0000194E0000194E0000B34F00001B
:104E60002B4F00006B4F0000194E0000194E000040
:104E7000D54F0000194E00002B4F0000194E0000C6
:104E8000194E0000734F000033681A1D1B68326012
:104E900004F1420684F842300123A8E03168236817
:104EA000081D30601E0601D50D6803E05D06FBD5C8
:104EB000B1F90050002D616878DA2D20002984F8BE
:104EC0004300A1602DDA0A235D486D421646B5FB0A
:104ED000F3F103FB1157C75D06F8017D2F46BB4276
:104EE0000D46F4D9082B0BD12368DF0708D52369B9
:104EF00061689942DEBF302306F8013C06F1FF36B7
:104F0000921B22614B4621464046CDF800A003AAE1
:104F100000F00FFC01306FD14FF0FF3004B0BDE85E
:104F2000F08723F004032360CDE721683368080687
:104F300053F8045B02D4490648BFADB26F2F33600B
:104F400014BF0A2308233E48002184F843106668F2
:104F5000002EA660BADB216821F004012160002D3B
:104F6000B4D1002EB2D11646BCE7236843F020032B
:104F700023607827334884F84570236831681F061A
:104F800051F8045B02D45F0648BFADB23160D90767
:104F900044BF43F0200323601DB11023D4E7284809
:104FA000E9E7236823F020032360F6E70A23244877
:104FB000CDE733682568181D616930602E061B68CF
:104FC00001D5196002E06806FBD51980002316465A
:104FD000236197E7336800211A1D32601E686268FA
:104FE000304600F0FEFC08B1801B606063682361FE
:104FF000002384F8433085E732464946404623691A
:10500000D047013088D023689B0714D4E068039B05
:105010009842B8BF184681E70123324649464046C8
:10502000D04701303FF478AF0135E36803995B1A4C
:10503000AB42F1DCEAE7002504F11906F5E700BF11
:105040007A6900008B6900000EB403B5014603AB1A
:10505000054853F8042B00680193FFF7B1FD02B037
:105060005DF804EB03B070477C10002038B5294B85
:10507000054618680C4618B1036A0BB9FFF7F8FB30
:10508000B4F90C30190722D4DA0607D409222A60B1
:1050900043F040034FF0FF30A38133E0580712D5AF
:1050A000616B41B104F14403994202D02846FFF7F5
:1050B00091FC00236363A38923F02403A3810023CD
:1050C000636023692360A38943F00803A3812369F4
:1050D0004BB9A38903F42073B3F5007F03D02146B5
:1050E000284600F0B8FCB4F90C3013F001020AD0E5
:1050F0000022A26062695242A261226942B913F0A1
:105100008000C5D138BD990758BF6269A260F4E735
:105110000020F7E77C10002038B50023054D044639
:1051200008462B60FBF78EFF431C02D12B6803B1AE
:10513000236038BD7C190020024B0146186800F03E
:10514000C6BC00BF7C10002038B50023064D0446C5
:10515000084611462B6000F007F9431C02D12B686A
:1051600003B1236038BD00BF7C19002038B500238F
:10517000054D044608462B6000F0FAF8431C02D1A6
:105180002B6803B1236038BD7C19002038B500239B
:10519000064D0446084611462B6000F0EBF8431C10
:1051A00002D12B6803B1236038BD00BF7C190020F9
:1051B00008B50020FBF72AFC002000F023F8BDE82A
:1051C0000840FBF743B810B500210220FDF7FCFCB6
:1051D000002308211A460220FDF774FD002309214F
:1051E0001A460220FDF76EFD00230A211A4602200E
:1051F000FDF768FDBDE8104000230B211A46022090
:10520000FDF760BD38B5054600F05EF90446FBF7D2
:10521000B1F8FFF7D8FFFBF7EBF82846FBF708F9E2
:105220002046BDE8384000F055B938B504460D4673
:10523000FBF7ECF9C0B2FF2818D0A36823F00813DD
:10524000A360E36823F00813E360236923F00813E5
:105250002361237D6FF3C3032375C308043314F85C
:10526000132042F0080204F81320A06104F10800A2
:10527000FBF71AFD64206368E26900FB0230FBF76C
:105280001BFC2B7823B12046FBF784FA00232B70FC
:1052900038BD08B500F088F9FFF78AFF00F091F9F2
:1052A000FBF734F8FAE708B5002278210120FDF772
:1052B0009DFE002278210220FDF798FE0022782131
:1052C0000320FDF793FE002278210420FDF78EFED7
:1052D000002278210520FDF789FE00227821062092
:1052E000FDF784FEBDE80840002278210720FDF785
:1052F0007DBE704708B5FBF70DFFFCF76DFAFBF7B5
:10530000BFFDBDE8084000F01AB808B500F015F878
:10531000BDE80840FBF7A0BD704770477047704775
:1053200070477047FBF7A6BD08B50123042207218B
:105330000520FDF7C7FC002008BDFFF7F5BF08B545
:10534000082000F089F8BDE80840082000F08FB878
:10535000FEE74FF4004070474FF47A707047FEE765
:105360004FF0FF307047FEE7002070470120704784
:10537000012070474FF0FF30704700207047002039
:105380007047436803B1184722207047436903B14F
:105390001847FF20704738B50D680C462B78022B54
:1053A0000CD069792879FBF75DFEB0FA80F04009EE
:1053B00028702046BDE83840FAF790BF38BD036832
:1053C0001878704710B504682378022B15D06179DE
:1053D0002079FBF747FEA279012A15D1003818BFC2
:1053E00001204FF6E071638840EA430363F03F0316
:1053F0009BB28B4202D12270638010BD4FF6DF72E8
:105400009342F9D10022F6E7002AF6D1B0FA80F0F3
:1054100040092070F1E703681A78022A03D10022BC
:105420005A80FBF73FBE704713B504682378022B00
:1054300010D0A379022B0BD100216079FCF7E4F99D
:105440000023627920791146CDE90033FDF7D6FBC0
:105450000223237002B010BD4FF060420123D2F846
:10546000001E83400B430020C2F8003E70474FF0FF
:1054700060410122D1F8003E824023EA020300206D
:10548000C1F8003E704710B588B004460E980092EF
:1054900007900D98224606909DF8300005900B98D5
:1054A00004909DF8280003900020CDE901300B46C0
:1054B0000121FBF7A3FE08B010BDEFF3108072B618
:1054C000704700B962B67047EFF31180602383F331
:1054D0001188704780F31188704770B505461446EF
:1054E0000E46FFF7EAFF2B685C4034405C402C60BE
:1054F000BDE87040FFF7E5BF38B5002405462146FA
:1055000005EB44100134FDF7BFFE102CF7D138BD78
:1055100003695B06FCD54163704713B54FF44073D4
:10552000002401A8ADF804308DF80640FCF7FAFE1F
:105530003220FCF72FFF204602B010BD80F82C105F
:10554000704790F82C007047826BD36C43F00403D3
:10555000D364704710B50446826B13695B06FCD5B3
:10556000002394F841101A4694F84000FDF7AAFB76
:10557000002394F843101A4694F84200FDF7A2FB6A
:10558000A06B0021C36C23F00403C364FEF7E0F8B2
:10559000E06B0021FCF7AAFC002010BD08B5806B71
:1055A000FFF7B6FF002008BD08B5FBF7D1FBFFF7FA
:1055B000A1FEFFF7AAFEFFF7AFFEBDE80840FFF728
:1055C000ACBE08B5FFF7AAFEFFF7A9FEFFF7A8FEDD
:1055D000BDE80840FFF7A5BE0028B8BF40427047AD
:1055E0002DE9F8430746884614460026D4E901957C
:1055F000B9F1010905D52468002CF7D13046BDE882
:10560000F883AB89012B07D9B5F90E30013303D0EC
:1056100029463846C04706436835E9E710B50C46C9
:10562000B1F90E10FFF770F90028ABBF636DA389C5
:105630001B1823F48053ACBF6365A38110BD2DE913
:10564000F0411F468B890546DB050C46164605D5FD
:1056500002230022B1F90E10FFF744F9A389324664
:1056600023F48053A38128463B46B4F90E10BDE8CD
:10567000F041FFF75BB910B50C46B1F90E10FFF71A
:1056800031F9431CA38915BF606523F4805343F4AB
:105690008053A38118BFA38110BDB1F90E10FFF78D
:1056A00011B903460244934200D1704703F8011B2D
:1056B000F9E77047704770470A44914200F1FF33A1
:1056C00000D1704710B511F8014B914203F8014F1A
:1056D000F9D110BD034613F8012B002AFBD1181A8B
:1056E00001387047936810B4013B002B936007DAD0
:1056F0009469A34201DB0A2902D110BC00F033B93E
:105700001368581C10601970084610BC7047F8B533
:1057100006460F461446D518AC4201D1002007E0DA
:105720003A46304614F8011BFFF7DCFF431CF3D167
:10573000F8BD2DE9F047164698468A680B6907467A
:105740009342B8BF1346336091F843200C46DDF80E
:1057500020900AB1013333602368990642BF336851
:1057600002333360256815F0060506D104F1190AE5
:10577000E36832689B1AAB422BDC94F84330226812
:10578000003B18BF0123920630D44146384604F14D
:105790004302C847013023D02368226903F006037F
:1057A000042B14BF002533684FF0000608BFE568DE
:1057B00004F11A0408BFED1A54F8123C08BF25EA98
:1057C000E5759342C4BF9B1AED18B5421AD100206B
:1057D00008E00123524641463846C847013003D10C
:1057E0004FF0FF30BDE8F0870135C1E73020E11808
:1057F00081F843005A1C94F845102244023382F881
:105800004310C2E70123224641463846C8470130CB
:10581000E6D00136D9E7B1F90C20F8B517070546EF
:105820000C4656D44B68002B02DC0B6C002B3DDD84
:10583000E66A002E3AD0002312F480522F68216AC3
:105840002B6025D0626DA389580705D56368D21AED
:10585000636B0BB1236CD21A216A00232846E66AD7
:10586000B047411C24D00023636023692360A389CF
:10587000DA0400D56065616B2F60B9B104F14403AF
:10588000994202D02846FFF7A5F8002363630DE094
:1058900001232846B047461C0246D4D12B68002B72
:1058A000D1D01D2B01D0162B2AD12F6000202EE045
:1058B0002A68B4F90C3042B11D2A01D0162A21D130
:1058C0000023636023692360D5E762602269226058
:1058D000CEE70F69002FE9D0930718BF00230E68A9
:1058E00008BF4B69F61B0F608B60002EDEDD334670
:1058F0003A462846216AD4F828C0E047002807DC49
:10590000B4F90C304FF0FF3043F04003A381F8BDF1
:105910000744361AE9E738B50B6905460C4613B952
:105920000025284638BD18B1036A0BB9FEF7A0FF61
:10593000B4F90C30002BF3D0626ED00704D4990573
:1059400002D4A06DFFF7B6FE28462146FFF763FF9D
:10595000636E0546DA07E4D4A3899B05E1D4A06D04
:10596000FFF7A9FEDDE7F8B50E461446054618B167
:10597000036A0BB9FEF77CFFA369A360A3891A072A
:1059800001D5236943B921462846FFF76FFB18B1BB
:105990004FF0FF373846F8BD23682269F6B2981AEF
:1059A00063693746834205DC21462846FFF7B3FF8B
:1059B0000028EDD1A368013BA36023685A1C226034
:1059C0001E706269431C9A4204D0A389DB07E1D5AB
:1059D0000A2EDFD121462846FFF79DFF0028D9D0A7
:1059E000D6E7034610B5C9B202449342184601D126
:1059F000002003E0047801338C42F6D110BD06206C
:105A000008B5FFF799FB0120FFF7ADFC70B50C4618
:105A1000B1F90E10154600291E4696B00CDAA3897E
:105A2000002113F0800F14BF40234FF48063002047
:105A300031602B6016B070BD6A46FFF785FB002809
:105A4000EDDB019901F47041A1F500535942594130
:105A50004FF48063EBE78B89F7B59D0706460C464C
:105A600007D504F14703236023610123636103B079
:105A7000F0BD6A4601ABFFF7C9FF009F05463946F6
:105A80003046FFF719F848B9B4F90C309A05EED44E
:105A900023F0030343F00203A381E2E7A389C4E9EF
:105AA000040743F08003A381019B20605BB1304673
:105AB000B4F90E10FFF75AFB28B1A38923F00303B2
:105AC00043F00103A381A3891D43A581CFE71F29CB
:105AD00038B505460C4604D9162303604FF0FF3055
